:020000040000FA
:10000000680E20208D01000091010000850D000088
:1000100000000000000000000000000000000000E0
:10002000000000000000000000000000950100003A
:10003000000000000000000097010000990100008E
:100040009B0100009B0100009B010000E91D0000D6
:100050009B0100009B0100009B0100009B01000030
:10006000000000009B0100009B0100000000000058
:1000700000000000D51C00005D1D0000A51C000054
:100080009B0100009B0100007D1C00009B01000003
:100090009B0100009B010000000000000000000028
:1000A0009B0100009B010000000000000000000018
:1000B0009B010000000000009B0100009B0100006C
:1000C00000F002F800F053F812A030C808382418E5
:1000D0002D18AC4201D100F04AF80FCCA246AB4635
:1000E0000CA730CF2D1B083F3F197C427F1E544484
:1000F0002D090426F441641EAC4201D300F037F808
:100100000126334200D0FB1A3343984754465D46DC
:10011000DFE70000C4300000D43000000000000021
:100120007047000000000000002300240025002686
:10013000103A01D378C1FBD8520700D330C100D5A3
:100140000B60704710B5642902D100F035F810BD7E
:10015000002010BD1FB500F0C7FB040000200021E7
:1001600002F05CFB401C60601FBD10B510BD00F0CC
:100170009BFB1146FFF7EEFF01F0E4FF00F0C7FB29
:1001800003B4FFF7F2FF03BC00F070FC0648004721
:10019000FEE7FEE7FEE7FEE7FEE7FEE70348044969
:1001A000024A044B70470000C1000000680620208E
:1001B000680E202068062020F7B5002575291068F4
:1001C000009914A611D0C046C046002802DA404269
:1001D00011A608E0009909688A0701D50FA602E078
:1001E000490704D50EA6012501E0C046C046009F80
:1001F0000024243704E000F0B1FA30313955641C92
:100200000028F8D12B4632462146009800F016FA15
:10021000FEBD0000000000002D0000002B000000CB
:100220002000000070B5064600F004FA0468054698
:1002300030460A22002100F059FA2C6070BD30B51A
:1002400005460B462A461C781078521C5B1C002879
:1002500001D0A042F7D0002C03D0002802D06D1CA2
:10026000EFE7284630BD000030B5441C03E00178BC
:10027000401C00290DD08107F9D10B4BDD0104C8CA
:10028000D11A91432940FAD0001B0A0603D0C01EA0
:1002900030BD001B30BD0A0401D0801E30BD0902F4
:1002A000FCD0401E30BD0000010101010346F0B545
:1002B0000B439B072DD1244DEF01042A29D308C8F5
:1002C00010C95E1B9E43121F3E4017D0D8B2E1B248
:1002D000401A3106014310D198B2A1B2401A31043C
:1002E00001430AD118022102000A090A401A310208
:1002F000014302D1180E210E401AF0BDA342DCD0FA
:1003000018BA21BA884201D90120F0BD0020C043AB
:10031000F0BD002A01D10020F0BD03780C78401C0C
:10032000491C002B0DD0A3420BD1521E09D00378DB
:100330000C78401C491C002B03D0A34201D1521E53
:10034000EBD1181BF0BD00000101010101E004C068
:10035000091F0429FBD28B0701D50280801CC90725
:1003600000D00270704700290BD0C30702D0027082
:10037000401C491E022904D3830702D50280801C39
:10038000891EE3E70022EEE70022DFE700220309EF
:100390008B4273D3030A8B4258D3030B8B423CD35B
:1003A000030C8B4221D312E003460B437FD400227F
:1003B00043088B4274D303098B425FD3030A8B42F9
:1003C00044D3030B8B4228D3030C8B420DD3090279
:1003D000FF2212BA030C8B4202D31212090265D01B
:1003E000030B8B4219D300E0090AC30B8B4201D3E4
:1003F000CB03C01A5241830B8B4201D38B03C01A2B
:100400005241430B8B4201D34B03C01A5241030BA1
:100410008B4201D30B03C01A5241C30A8B4201D352
:10042000CB02C01A5241830A8B4201D38B02C01AFD
:100430005241430A8B4201D34B02C01A5241030A74
:100440008B4201D30B02C01A5241CDD2C3098B4259
:1004500001D3CB01C01A524183098B4201D38B01D6
:10046000C01A524143098B4201D34B01C01A524179
:1004700003098B4201D30B01C01A5241C3088B42BE
:1004800001D3CB00C01A524183088B4201D38B00A9
:10049000C01A524143088B4201D34B00C01A52414B
:1004A000411A00D201465241104670475DE0CA0F22
:1004B00000D04942031000D3404253409C460022E2
:1004C00003098B422DD3030A8B4212D38901FC22EC
:1004D00012BA030A8B420CD3890192118B4208D3C2
:1004E000890192118B4204D389013AD0921100E024
:1004F0008909C3098B4201D3CB01C01A5241830938
:100500008B4201D38B01C01A524143098B4201D364
:100510004B01C01A524103098B4201D30B01C01A8F
:100520005241C3088B4201D3CB00C01A5241830809
:100530008B4201D38B00C01A5241D9D243088B425F
:1005400001D34B00C01A5241411A00D20146524118
:10055000104663465B1001D34042002B00D5494250
:10056000704763465B1000D3404201B50449002840
:1005700002DC491C084000E00846C046C04602BDF7
:10058000FFFFFF7F70477047704710B501469E24FC
:100590000002CA15A307002A02D01843002A04DB70
:1005A000A21A002A0CDDD04010BD1206120E01D195
:1005B00040004008A21A03D4D04040420028F3DD96
:1005C000FF2248001206904201D9002010BDC81732
:1005D000C043584010BD1F22030C02D10F2200045B
:1005E0001CD0030E01D10002083A030F01D1000113
:1005F000121F830F01D18000921E002801DB4000F2
:10060000521ED2055118021251181922904004D3DB
:10061000491C002801D14908490008467047C10F0C
:10062000C90700D04042012292071143D3E70121BC
:100630008907D0E70048704700002020FFB5044636
:100640000D4681B0243000902168880604D5102220
:10065000E0699143216000E00120A84201DD471BD1
:1006600000E000270498A1697A191018081AA061FF
:100670002078C00602D42046C046C046002608E0C6
:1006800003986268A168805D9047206A401C761CD0
:10069000206204988642F3DB2078C0060AD5204603
:1006A000C046C04606E06268A16830209047206AD4
:1006B000401C206238467F1E0028F4DC07E00098CA
:1006C0006268A168405D9047206A401C206228460D
:1006D0006D1E0028F3DC2046C046C0462078000688
:1006E00002D5022005B0F0BD0120FBE7F7B50F46AB
:1006F0000026009C2578641C002D05D000F046F8EB
:100700000068405DC007F5D12B2D02D02D2D18D0EB
:10071000641E3946029A204600F040F8002F04D0AB
:100720003968A14201D1009939607105022400297C
:100730000BDA4042002803DDFFF77CFF0460A007CE
:10074000FEBD012080020643E3E70028F8DAFFF748
:1007500071FF04600048FEBDFFFFFF7F0146800877
:10076000081A02091018020A1018020C1018C00802
:10077000820012185200891A01E0401C0A390A2925
:10078000FBD27047004870470000202010B500F0F1
:10079000ABF8001D10BD00BF85200000F7B5154661
:1007A00082B00027029C2078641C0197302802D078
:1007B000002D15D015E020780127641C782804D07E
:1007C000582802D0002D09D00BE0002D01D0102DAB
:1007D00007D1207800271025641C02E0082500E0DE
:1007E0000A250026009610E00099012769430818A1
:1007F00029467143020C80B200908E18380486425C
:1008000001D3012001902078641C294600F070F883
:100810000028E9DA0398002805D0002F01D0641ED3
:1008200000E0029C04600198002806D0FFF702FF58
:1008300002210160C81E05B0F0BD009930040843D4
:10084000F9E7000010B5FF231B0644009C421DD8A9
:100850004C009C421AD80346124A0B4307D4401A54
:1008600002D3EFF3008010BDEFF3008010BD081A33
:1008700003D3EFF30080904305E0EFF30080012104
:100880009043C907084380F3008810BD0D231B0463
:100890001A4204D01146002000F041F810BD00F0CB
:1008A00055F810BD000000907546FFF76BFFAE468F
:1008B000050069465346C008C000854618B020B5FB
:1008C000FFF76CFC60BCB64600260027C0C5C0C55B
:1008D000C0C5C0C5C0C5C0C5C0C5C0C5403D49082C
:1008E00049008D46704700000048704720002020D6
:1008F0003A2800D23038202302469A43412A01D3B5
:1009000010463738884201D30020C043704710B5E5
:100910000446C046C0462046FFF732FC10BDC80260
:1009200012D54803400F002804D0C803C04301215A
:1009300088407047EFF30080000100090321090798
:10094000084380F3008870470020704710B50248C4
:1009500000F05CF810BD00000000C07F82078B072C
:100960009A423FD170B5920F0AD0032402780B78D7
:10097000401C491C002A33D09A4231D12042F5D183
:10098000214EF40104C808C9951B9543254018D190
:100990009A420FD104C808C9951B9543254010D130
:1009A0009A4207D104C808C9951B9543254008D130
:1009B0009A42E7D012BA1BBA01209A4200D24042B2
:1009C00070BD12BA1BBA2DBA18241000E0401900ED
:1009D000E140401A05D12E00E64002D1083CF4D196
:1009E000D01A70BD02780B78401C491C002A09D02F
:1009F0009A4207D102780B78401C491C002A01D08A
:100A00009A42EFD0D01A70470101010110B50C468F
:100A10001107090F092904D00A290AD008290CD185
:100A200004E011460820FFF77AFF06E0510606D5DC
:100A300001E0510601D50120C007214610BDD106B5
:100A400007D501010909CC084907000E0006044337
:100A500009E0410F20024907000A0143200E000669
:100A60001D22D14101430846E7E700000149182053
:100A7000ABBEFEE72600020070470000B0B50A7862
:100A8000032313400B4A84580B4D2540EB18A9242F
:100A900024061B198350072212064B6813401124A9
:100AA000240205599543EA18025100194978016159
:100AB000B0BDC04608080000FCFFFF00811E091FF2
:100AC00000BFFCD270470000F0B5684A8218294B7D
:100AD000C318087920280DD000281DD10C68641E89
:100AE0005460D56E244C25408835D5661646703640
:100AF00088251DE00C68641E5460D46E1E4D2C4089
:100B00001E4EA419D466146F2C40A4191467012436
:100B100065071B4C16460BE00C6864085460D66EE3
:100B2000154C26400525ED017619D6661646703619
:100B3000376827402F433760D46A4E4D2C40D4622B
:100B4000146B2C4014630024D46414658F24E44394
:100B5000D56F2540D5671D6825401D604979014343
:100B6000BD2008401168074B0B40C018801C106066
:100B7000F0BDC0468418000024F93FF001040000D5
:100B8000FFFFFFCF4000FFCFB0B54A68364BC250E1
:100B9000364A80180A78222A58D8930001A4E358CC
:100BA0009F46C046430C00004D0C0000430C000063
:100BB0004D0C00004D0C00004D0C00004D0C0000D1
:100BC0004D0C00004D0C00004D0C00004D0C0000C1
:100BD0004D0C00004D0C00004D0C00004D0C0000B1
:100BE0004D0C0000310C00004D0C0000310C0000D9
:100BF0004D0C00004D0C00004D0C00004D0C000091
:100C00004D0C00004D0C00004D0C00004D0C000080
:100C10004D0C00004D0C00004D0C00004D0C000070
:100C20004D0C0000310C00004D0C0000310C000098
:100C300003231B0704689C4301235B07E31803603D
:100C400004E003231B0704689C4304600B8AC36011
:100C5000CB68074C1C40C36A064D1D402B19C3626C
:100C6000097A11430160B0BD0818000004180000A3
:100C7000777702008888FDFF10B507239B04194091
:100C800092008018024A84589C436118815010BD1C
:100C90003018000010B5029CA4000019114319433C
:100CA000014A815010BDC0465018000092008018C3
:100CB000014A81507047C0461018000010B501224B
:100CC000120383180C789C604B7883508978014A12
:100CD000815010BD0C110000B0B5112212028358D2
:100CE0000124A34383500B888C781C438B882343B7
:100CF000094C1C408358094D1D40631983508B7962
:100D0000CC791C43097A21437E231940801842681C
:100D10009A4351184160B0BD18670000E798FDFF85
:100D200010B50122120383180C789C604978815019
:100D300010BD000012490A68101808607047C046CC
:100D4000024801680022026008B27047001809409A
:100D500080B5EFF3108072B609480068FFF75FFCBA
:100D6000024901F00BFE62B680BDC0467409143E14
:100D7000EFF3108072B602480021016062B670473E
:100D80001404202000F0B4F9012002A2014600F072
:100D9000D7FBFEE7484152444641554C5400000001
:100DA000F0B593B00C46054606468036532A04D16A
:100DB000012070700020307002E07078002815D09B
:100DC00030787E280FD8411C31702A5430780027A3
:100DD0002F540A2A0AD127757AA103222846FFF741
:100DE00065FA002804D000207070307013B0F0BD98
:100DF00075A12846FFF723FA0028F4D0ED1C2878C7
:100E00002C2804D168782C2809D1AD1CF7E70028DC
:100E1000E9D02D280DD04528E5D000230FE000288B
:100E2000E1D02D2804D04528DDD06D1C002306E03C
:100E30006D1C05A82D21017068786D1C01233028D8
:100E400000D294E005A9C9180491002202930193ED
:100E500000979918392844D8049B9854A8184378C7
:100E6000302B40D3392B42D80391049989184B7009
:100E70008378302B40D3392B42D88B70C378302BFA
:100E800043D3392B45D8CB700379302B46D3392B3C
:100E900048D80B714379302B49D3392B4BD84B7140
:100EA0008379302B4CD3392B4ED82746039C082C02
:100EB0003C4649D88B71C379302B4AD3392B50D853
:100EC000039C072C3C464CD8CB71007A083202991F
:100ED000083102912F28019B009FBAD8AD18029AC1
:100EE0003BE0AD1842E0451C029A521C35E0451C1F
:100EF00001988018411C39E0851C029A921C2CE054
:100F0000851C01988018811C30E0C51C029AD21CF7
:100F100023E0C51C01988018C11C27E0051D029A1A
:100F2000121D1AE0051D01988018011D1EE0451DC7
:100F3000029A521D11E0451D01988018411D15E0CF
:100F4000851D029A921D08E0851D01988018811D5B
:100F50000BE0C51D029AD21D009F05A800218154F7
:100F60000AE0C51D01988018C11D009FCBB205A8DD
:100F70000021C154002B09D005A8FFF753F9B9008F
:100F800009AA50507F1C0A2F04DA38E76D1C0A2F7B
:100F900000DA34E7099820700A9860800B98A080E6
:100FA0000C98E0800D9820810E9860810F98A081A8
:100FB0001098E08111982082129801212175608299
:100FC00011E7C04653412C004544000010B50C48C1
:100FD00000218182016041608160C1600161094836
:100FE000016041608160C1600161818206488224A4
:100FF0002146FFF7C9F905482146FFF7C5F910BD9D
:101000006802202080022020980220201C0320203B
:1010100070B51D4D2868C00215D401242605142082
:1010200000F0E8FF2868304208D12868304205D136
:101030002868304202D128683042F3D0142000F0F2
:10104000D9FF204670BD002070BDC04670B50E4D62
:101050002868C00115D401242606142000F0CAFF18
:101060002868304208D12868304205D128683042CB
:1010700002D128683042F3D0142000F0BBFF204694
:1010800070BD002070BDC04680330A4070B50E4D63
:101090002868000115D40124E606142000F0AAFFF8
:1010A0002868304208D12868304205D1286830428B
:1010B00002D128683042F3D0142000F09BFF204674
:1010C00070BD002070BDC04680130A4080B501216C
:1010D0000B0249029F4A002802D41360116102E00A
:1010E00013611160404280B200F0A6FA80BDC04694
:1010F000B0B5B02000F03AFA102000F037FA002521
:10110000284600F033FA0024204600F05FFA681CFD
:1011100045B2002DF7D5B12000F028FA102000F0DC
:1011200025FA204600F022FA0025284600F04EFA63
:10113000601C44B2002CF7D5B22000F017FA102042
:1011400000F014FA284600F011FA0024204600F0BE
:101150003DFA681C45B2002DF7D5B32000F006FA21
:10116000102000F003FA204600F000FA002528467F
:1011700000F02CFA601C44B2002CF7D5B42000F02B
:10118000F5F9102000F0F2F9284600F0EFF90024FC
:10119000204600F01BFA681C45B2002DF7D5B5209B
:1011A00000F0E4F9102000F0E1F9204600F0DEF94B
:1011B0000025284600F00AFA601C44B2002CF7D53E
:1011C000B62000F0D3F9102000F0D0F9284600F046
:1011D000CDF90024204600F0F9F9681C45B2002D35
:1011E000F7D5B72000F0C2F9102000F0BFF9204673
:1011F00000F0BCF9002000F0E9F9601C44B2002CBA
:10120000F8D5B0BDF0B581B0044640B2EE4E00282E
:1012100002D40820306101E0082030600125284612
:1012200000F008FF04273760284600F003FF37610D
:10123000284600F0FFFE600602D40820306101E07D
:10124000082030600125284600F0F4FE376028466B
:1012500000F0F0FE3761284600F0ECFEA00602D454
:101260000820306101E0082030600125284600F0A8
:10127000E1FE3760284600F0DDFE3761284600F0C9
:10128000D9FEE00602D40820306101E00820306079
:101290000125284600F0CEFE3760284600F0CAFE41
:1012A0003761284600F0C6FE200702D408203061CE
:1012B00001E0082030600125284600F0BBFE3760C1
:1012C000284600F0B7FE3761284600F0B3FE6007FD
:1012D00002D40820306101E0082030600125284652
:1012E00000F0A8FE3760284600F0A4FE37612846CB
:1012F00000F0A0FEA00702D40820306101E0082021
:1013000030600125284600F095FE3760284600F041
:1013100091FE3761284600F08DFEE00702D10820DB
:10132000306101E0082030600124204600F082FE98
:101330003760204600F07EFE3761204600F07AFEDE
:101340003760204600F076FE3761204600F072FEDE
:1013500001B0F0BD90320A4080B5AE2000F006F931
:10136000D52000F003F9802000F000F9A82000F05B
:10137000FDF83F2000F0FAF8D32000F0F7F8002045
:1013800000F0F4F8402000F0F1F8A12000F0EEF8B1
:10139000C82000F0EBF8DA2000F0E8F8122000F0A6
:1013A000E5F8812000F0E2F8CF2000F0DFF8D92046
:1013B00000F0DCF8F12000F0D9F8DB2000F0D6F8DE
:1013C000302000F0D3F8A42000F0D0F8A62000F0E0
:1013D000CDF88D2000F0CAF8142000F0C7F8AF2037
:1013E00000F0C4F8FFF784FE80BD0000F0B583B0C4
:1013F00016460C46400002907E30B0210191084311
:10140000C0B200F0B3F8E700083FF8B204091034A6
:10141000204600F0ABF808253D40284600F0A6F82D
:10142000300121494618214FF05D00F0CFF8F61940
:10143000707800F0CBF8B07800F0C8F8F07800F0E1
:10144000C5F8307900F0C2F8707900F0BFF8B079D3
:1014500000F0BCF8F07900F0B9F80298401E01994C
:101460000843C0B200F082F8204600F07FF828461A
:1014700000F07CF8307A00F0A9F8707A00F0A6F855
:10148000B07A00F0A3F8F07A00F0A0F8307B00F01A
:101490009DF8707B00F09AF8B07B00F097F8F07B35
:1014A00000F094F803B0F0BD602B000000FEFFFFD9
:1014B000F0B587B003AC0FC4002B3DD00698451E95
:1014C00041420291801E019000271C4E13E0012131
:1014D00004983C18059801F085F80A21FEF756FF9C
:1014E00030220A43E1B20398FFF780FF6D1E7F1C94
:1014F0000698874220D0F84302998842E7D0032219
:101500000199C91B032901D2012105E02B46934310
:10151000012171431B1FFCD1069BC0181040D7D07E
:10152000012801D10A2005E0022802D07D20C00058
:1015300000E064204143CBE707B0F0BD1027000076
:10154000F0B581B00646107800280DD014460D463F
:1015500000277919C9B2C2B23046FFF747FF7F1C96
:10156000F8B2205C0028F4D101B0F0BDF0B581B034
:1015700000908D4E082737600124204600F05AFD68
:1015800004253560204600F055FD3761204600F007
:1015900051FD3561204600F04DFD7820FFF732FE09
:1015A0000020FFF72FFE0098FFF72CFE3761204642
:1015B00000F040FD3560204600F03CFD37602046DD
:1015C00000F038FD01B0F0BD90320A40F0B581B0B6
:1015D0000090754E082737600124204600F02AFD50
:1015E00004253560204600F025FD3761204600F0D7
:1015F00021FD3561204600F01DFD7820FFF702FE39
:101600004020FFF7FFFD0098FFF7FCFD3761204603
:1016100000F010FD3560204600F00CFD37602046DC
:1016200000F008FD01B0F0BD80B501467B48002206
:10163000FFF73CFB80BDC04680B5014677480122DC
:10164000FFF734FB80BDC04610B501210B024A02F2
:10165000414209B2064C002902D42360226102E013
:1016600023612260014688B2FFF7DEFF10BDC0464D
:1016700090120A4080B50D480D49FFF7FFF90D485B
:1016800041680D4A0A4001214B04D2184260826829
:101690000A4B134083600A4A002313600A0403685C
:1016A0001343036002680A43026080BD00200040CB
:1016B0007031000000310040FEFFECFFF8FFE0E079
:1016C0008031004080B50C480C49FFF7F7FA0C4810
:1016D0000C49C1620022C2670B4B036001630B49D6
:1016E0000A6003600A4941600A4901220A600168F0
:1016F0001143016080BDC046000009407831000000
:1017000004180940010002001292001084180940D8
:10171000FFFF000008110940B0B51E49862008638C
:10172000012253051C48036088234B639205026025
:101730001A4B9C1D1A4A54605C1D146082249460EC
:101740005D1C55619465D565CC640D654C664D6531
:101750009361144C54638C62CC628B638B648B6694
:1017600081239364D364136653669363D3630B60DE
:101770004B608B6001463039732212020A600260AE
:1017800003200002084908610C220A600C3008643A
:10179000B0BDC04688804240D0120A40810004009B
:1017A000048042408100060090320A40F0B581B0CA
:1017B0001A4C1B492046FFF781FA1A492046FFF7C9
:1017C00083F97D20C6000025204631462A46FFF7D2
:1017D0006DFA0095204629462A462B46FFF75AFA0D
:1017E000204629462A46FFF747FA01272046314678
:1017F0003A46FFF75BFA0097204629462A462B46D1
:10180000FFF748FA204629463A46FFF735FA0648D8
:1018100087600321016001B0F0BDC04600808640B2
:101820007B31000080310000009186400C4800218F
:1018300001600320C1430B480246083A13680B407D
:1018400013600168012291430160110203688B4318
:1018500003601103001F02680A4302607047C0461C
:1018600008030B4008010B400548042101601F21BB
:10187000416000218160016805220A4302607047CF
:1018800010E000E010B50D4C0D492046FFF716FAA8
:101890000C492046FFF778F90B48016801221143F3
:1018A0000160FF20000409490B6883430320800581
:1018B000181808600648026010BDC0460000864047
:1018C000883100008C3100002810864010E400E0D0
:1018D0000811864010B51D4C1D492046FFF720FA1F
:1018E0001C492046FFF7F8F90320C1031A48026893
:1018F0008A4302600169824A0A40911C0161416980
:101900000B220A4334218A434261426801210A4082
:1019100043688B439A1842608A02104B1C68144338
:101920001C604A04036813430360C2682023134306
:1019300050229343C360C26802231343052293439A
:10194000C36002680A43026010BDC04600801040B8
:10195000A0310000A23100000091104028901040FA
:1019600010B51D4C1D492046FFF7DAF91C492046E9
:10197000FFF7B2F90320C1031A4802688A430260E4
:1019800001695F4A0A40911C016141690B220A43C7
:1019900034218A434261426801210A4043688B43F3
:1019A0009A184260104A1368324C1C4314604A046F
:1019B000036813430360C2682023134350229343F8
:1019C000C360C2680223134305229343C3600268C5
:1019D0000A43026010BDC04600001040AC31000058
:1019E000AE310000001110402810104010B51C4C02
:1019F0001C492046FFF794F91B492046FFF76CF974
:101A00000321CA03194803689343036002693C4BEE
:101A100013401A33036142690A433C218A434261FD
:101A2000426801210A4043688B439A184260104A79
:101A30001368104C1C4314604A040368134303608A
:101A4000C2682023134350229343C360C268022319
:101A5000134305229343C36002680A43026010BD2A
:101A600000201040B8310000BA31000000311040B1
:101A7000283010401704000010B51D4C1D492046A9
:101A8000FFF74EF91C492046FFF726F90320C10352
:101A90001A4802688A4302600169194A0A40911C87
:101AA000016141690B220A4334218A434261426841
:101AB00001210A4043688B439A1842608A02114B05
:101AC0001C6814431C604A04036813430360C26823
:101AD0002023134350229343C360C268022313435D
:101AE00005229343C36002680A43026010BDC046EA
:101AF00000005040C4310000C631000000115040C9
:101B00000000FFFF2810504080B500F02BF8FFF7D1
:101B100003FEFFF78BFEFFF749FEFFF7D3FDFFF74C
:101B2000B1FEFFF7D7FEFFF71BFFFFF75FFFFFF7E1
:101B3000A3FFFFF79FFDFFF797FE742005490022E2
:101B40000A5405490A54B82004490A542C2004496F
:101B50000A5480BD8C002020040120207C0120201C
:101B600038022020F0B581B01448154A426015486B
:101B700042601548426015484260154D6A60154E36
:101B80007260154F7A60154B5A6015494A601548C6
:101B90004260154A094C22600A4C22600A4C2260BD
:101BA0000A4C22602A6032603A601A600A60026061
:101BB0001020FEF783FF01B0F0BDC04600080A40C8
:101BC000030000B100280A40008886400008094050
:101BD000000886400088104000081040002810408F
:101BE000000850400028004001000026F0B581B0F8
:101BF000002608E00124F0B2E1B240341D4A14543A
:101C00000A293E4626D0771CFFF702FA0028F1D1B8
:101C100001252C4604E00446FFF7FAF90028EAD132
:101C2000F9B220464030C2B22846FFF7DFFBFFF78B
:101C30000DFA002800D0641CFFF728FA002800D015
:101C4000641EE0B20A28284600D820460106E2D1E8
:101C50000A24E1E7074800F07BFC0220012106A2EC
:101C6000FFF76EFC7D20C00000F0C4F9FFF740FADA
:101C700001B0F0BDEF0320206F6B000010B50748E6
:101C80000068000608D0FFF75BF80446FFF752F83B
:101C9000034801680919016010BDC0462010864044
:101CA0006000202070B5084E306840070AD4074C09
:101CB000074DF069C2B220462946FFF771F8306837
:101CC0004007F6D570BDC04608911040980220200C
:101CD0006802202070B51C480168CAB20B2A31D8AE
:101CE000012191402C22114213D016218162174804
:101CF0000168490726D4C1690168490722D4C1692E
:101D0000016849071ED4C169016849071AD4C1692D
:101D1000EEE73048014215D00C480168490711D45C
:101D20000B490C4A0C4B02E0046864070AD4C469EE
:101D30000D886D1CEDB21688B542F5D00E889C5505
:101D40000D80F1E770BDC046201010400811104012
:101D50005C0520205E0520205C04202070B51C4816
:101D60000168CAB20B2A31D8012191402C221142BC
:101D700013D01621816218480168490726D4C16929
:101D80000168490722D4C169016849071ED4C169A5
:101D9000016849071AD4C169EEE70E48014215D01F
:101DA0000D480168490711D40C490D4A0D4B02E05A
:101DB000046864070AD4C4690D886D1CEDB21688E6
:101DC000B542F5D00E889C550D80F1E770BDC04638
:101DD000203010400208000008311040600620202A
:101DE000620620206005202070B5084E306840074C
:101DF0000AD4074C074DF069C2B220462946FEF7C7
:101E0000CFFF30684007F6D570BDC046081150407E
:101E10001C03202080022020F0B58BB00A931446CA
:101E20000E460890FEF720FAC1B2002935D04F1EA9
:101E300000D1CAE001233A461A40022903900297D2
:101E4000049401922BD10023019800280398029F4B
:101E5000049C00D1B9E0099606460898C45C413C50
:101E6000E1B2002009290146024605D861B2890085
:101E70005E4A52585E4C6158089C1C196578413D79
:101E8000ECB2092C044600D985E068B284005748BA
:101E9000005990427DD9002586E00020A3E00593FB
:101EA0009F43079700273D46069707E0AB1C0A9A19
:101EB00052195170079898421D46C5D03046089C6B
:101EC000625D413AD1B209293B46394605D851B243
:101ED0008A0046498958464B9B5862195678413EBC
:101EE000F4B2092C3C4609D874B2A6003F4CA45960
:101EF0008C4201D900230AE03D4FBF598C4201D2E8
:101F0000022304E09F4201D3059B00E00323C1B2FA
:101F1000591A091D8CB2A40B0C1903200990844393
:101F2000091B042900D302210A9C61555678413EC1
:101F3000F4B20021092C0C460F4605D874B2A40057
:101F40002A4807592A4804599678413EF2B2092A8C
:101F50000A4609D871B28A0024488158B94201D989
:101F6000002609E022488258B94201D2022603E045
:101F7000A242099E00D30126069FF11A091D8AB2CA
:101F8000920B8A1803239A43891A04298ED30221BB
:101F90008CE7174D2C59904201D2022504E08C4267
:101FA00001D3012500E0032530460999691A091D6E
:101FB0008AB2920B8A180324A243891A042900D3F7
:101FC00002210A9AD1542E46049CF1B2611A0B1DCB
:101FD00099B2890B591803229143591A042900D345
:101FE00002210A9AD155C0B20BB0F0BD242B0000DB
:101FF000FC2A000010B57D21090241431C480268FB
:10200000002301E08B4214D214460268A24208D198
:102010000268A24205D10268A24202D10268A2422D
:10202000F3D01B199B1AA242ECD3041F24681B197E
:10203000E8E710BD10B50E490A684001002301E031
:10204000834214D214460A68A24208D10A68A24206
:1020500005D10A68A24202D10A68A242F3D01B1934
:102060009B1AA242ECD30C1F24681B19E8E710BD91
:1020700018E000E010B53248002141700170817015
:10208000C1700171417181718174417401220274C6
:10209000C173827341730273C172827241720172A1
:1020A000C1712423C1540176C175817541750175D3
:1020B000C17403461B331972DA7199715A71C17771
:1020C000827741770277C176817641763623C15493
:1020D0002D23C15403462433997159711971D97054
:1020E0009970597004462D342172E271A1716271A8
:1020F0002171E270A17062701972D9710346363392
:10210000997159711971D970997059704824015594
:102110003F24015504463F342172E271A17162717E
:102120002171E270A17062701972D97148308171A9
:1021300041710171C170817041700172C17110BD36
:102140009E032020F0B585B0FFF7DEFCFFF704F911
:10215000FFF790FFFEF73AFFDE4808210160DE4AF4
:1021600011600125A904016001911160DB48002183
:102170000160DB480160DB480170DB480560DB483B
:102180000160DB480424C4708170417002910170C9
:10219000FFF72CFDD748D84B29462A46FFF73CFECF
:1021A000D64908607D20C0000090FFF723FFFEF7AE
:1021B0009FFFD3A228462946FFF7C2F91020D24933
:1021C00004900A5E0220294603942346FFF770F923
:1021D000FEF7CEFDFEF7BCFDCC4900F0FEFA00286C
:1021E0004ED1CE4F0AE0C8363046FFF72DFAFEF743
:1021F000AFFDC64900F007FB002841D0049CC24D4A
:102200002A5F022001210423FFF752F9FEF7A0FD07
:10221000BF490860285F7321081AFEF700FA0646D6
:10222000BC480068314600F00FFB0446BA4D294611
:1022300000F0DEFA002800D125462846394600F095
:10224000E2FA0028384600D12846B24908603046F4
:10225000FEF79BF90646C824201A19210901884275
:1022600000DB0846AE49884200DCAD48FEF72EFF91
:10227000C82E00DB2646AB488642B4DCA94EB2E746
:1022800041208000FEF722FF7820FFF7DDF9A64805
:10229000FFF7B0FEFEF72CFF984D2868A34F07E02C
:1022A00000242046FEF712FF2046FFF7CDF92868EC
:1022B0003968814200DBABE09E4804680398044023
:1022C000A208012602233146FFF7F2F8002CE7D1DD
:1022D000974B196801980140880C7040964A10602D
:1022E000F20418681040C20C7240944B1A60002926
:1022F00006D0002804D092480068012802D020E0CF
:102300008F48066038687C4909560329029C20469C
:10231000009D07D888008B4A155848008A490C5AF6
:102320008A49085A00B2FEF7D1FE20B2FFF78CF9B5
:102330002846FFF75FFE0298814908603868401C14
:10234000386004987049085E7321081AFEF767F92F
:10235000064670480068314600F076FA05466E4C35
:10236000214600F045FA002800D12C4620466B4D4E
:10237000294600F048FA002800D1254665490D603D
:102380003046FEF702F90646C824201A1921090131
:10239000884200DB08466249884200DC6048FEF75C
:1023A00095FEC82E00DB26463C465E48864200DC91
:1023B0005C4EC8363046FFF747F9049852490A5E2A
:1023C000022601250427304629463B46FFF770F8D0
:1023D0005B480268284629463346FFF769F82268B9
:1023E000284639463346FFF763F85348026803240A
:1023F000204629463346FFF75BF8504802682046DE
:1024000039464A4F3346FFF753F83C4D28684FE7AB
:10241000FEF7AEFCFEF79CFC3C4900F0DEF900281C
:102420004ED13E4D0AE0C8373846FFF70DF9FEF7AA
:102430008FFC364900F0E7F9002841D0049C324E69
:10244000325F022001210423FFF732F8FEF780FCFF
:102450002F490860305F6E21081AFEF7E0F8074642
:102460002C480068394600F0EFF906462A4C214610
:1024700000F0BEF9002800D134462046294600F07D
:10248000C2F90028284600D1204622490860384673
:10249000FEF77BF80746C824201A19210901884253
:1024A00000DB08461E49884200DC1D48FEF70EFE90
:1024B000C82F00DB27461B488742B4DC194FB2E720
:1024C00000242046FEF702FE2046FFF7BDF8204616
:1024D00005B0F0BD80E200E000E100E01004202043
:1024E0000C04202084002020040420200804202044
:1024F00080002020EF0320206C0020207800202086
:10250000737461727400000080022020008089448E
:10251000880020205804202000009643000096C325
:1025200070FEFFFFA8FDFFFF2E09000068002020BD
:1025300080330A4080130A40640020207C00202061
:10254000000420205031000068310000603100009C
:10255000F0B500231D491E4D1E4C00280CD00678F6
:10256000002E1A460FD01A4900220A7019490A7023
:102570004F2E03D1014608E01A4604E001220A70FA
:10258000154C651C01462B7023700F78002F1CD052
:102590000025114B2E460AE0D7B27F00DF19521CEE
:1025A0007C703870761CF0B20F5C002F0BD0413F6E
:1025B000F8B2092828462C46EED878B2074C245C9D
:1025C000074F385CE8E703480270F0BDD0310000E7
:1025D000540420205504202018042020562B0000ED
:1025E0004C2B000043088B421AD3002203098B4274
:1025F00079D3030A8B425ED3030B8B4242D3030C85
:102600008B4227D30902FF2212BA030C8B4202D35A
:102610001212090203D0030B8B4233D31AE0D3E02A
:10262000411A8041401C704703460B4371D4430854
:102630008B42F5D3002203098B4254D3030A8B4209
:1026400039D3030B8B421DD3030C8B4202D3944628
:102650006EE0090AC30B8B4201D3CB03C01A52416F
:10266000830B8B4201D38B03C01A5241430B8B4225
:1026700001D34B03C01A5241030B8B4201D30B030E
:10268000C01A5241C30A8B4201D3CB02C01A524135
:10269000830A8B4201D38B02C01A5241430A8B42F8
:1026A00001D34B02C01A5241030A8B4201D30B02E1
:1026B000C01A5241CDD2C3098B4201D3CB01C01AFB
:1026C000524183098B4201D38B01C01A5241430905
:1026D0008B4201D34B01C01A524103098B4201D3F3
:1026E0000B01C01A5241C3088B4201D3CB00C01A60
:1026F000524183088B4201D38B00C01A52414308D8
:102700008B4201D34B00C01A5241411A5241100072
:102710007047CA0F00D04942031000D340425340D3
:1027200000229C4603098B422DD3030A8B4212D30D
:102730008901FC2212BA030A8B420CD3890192113F
:102740008B4208D3890192118B4204D3890137D07F
:10275000921100E08909C3098B4201D3CB01C01A51
:10276000524183098B4201D38B01C01A5241430964
:102770008B4201D34B01C01A524103098B4201D352
:102780000B01C01A5241C3088B4201D3CB00C01ABF
:10279000524183088B4201D38B00C01A5241D9D2D7
:1027A00043088B4201D34B00C01A5241411A00D258
:1027B00001465241104663465B1000D340427047C9
:1027C00063465B1000D3404201B50021004201D0B6
:1027D000C9430846C046C04602BD10B500F07AF8AD
:1027E000EFF30080800001D5012010BD002010BD56
:1027F00010B500F06FF8EFF300804000800F012863
:1028000000D0002010BD10B500F08EF8EFF300806E
:10281000800001D4012010BD002010BD10B500299A
:102820000AD00878002807D005487844FEF796F8C3
:10283000002801D0002010BD0248784410BD0000DF
:10284000BE090000B609000070B50125ED070400BF
:102850004C4020D4441A01D2001B0919C60D4B006C
:10286000F2B2FF2A29D01B0E2CD000020C02284302
:102870002C43D31ADC40051910D2280A02D3401C7D
:102880006D0611D0761EF6058019FF2A00DA70BD9C
:10289000C00DC00570BD694000F0CEF801200543B1
:1028A000C541521C761CE8E764089C40C9016140A0
:1028B0008900E7D10124A043E4E71B0E440200D0C5
:1028C000034870BD002AFCD1C00FC00770BD00BF17
:1028D0000000C07F0123DB0502000A430DD4DA4269
:1028E00003D49A4207D488427047D84214D4D942BC
:1028F00012D48842704780427047DA4203D59A4228
:10290000F9D5814270475B004200DA4204D24A00A6
:10291000DA4201D28142704710B5024AFDF792FFB8
:1029200010BD00BF090013040123DB0502000A43A8
:102930000DD4DA4203D49A4207D488427047D84271
:1029400014D4D94212D48842704780427047DA4288
:1029500003D59A42F9D5814270475B004200DA42C2
:1029600004D24A00DA4201D28142704710B5024ACD
:10297000FDF768FF10BD00BF0900160470B54200E6
:1029800064414B005C41120E39D01B0E38D0FF2A37
:102990003CD0FF2B3AD0D2187F3A40024902400A7D
:1029A000490A4518ED0106004E43000A090A48434A
:1029B0000104731A4019190C4318990F04D05B08CD
:1029C000012149075B1A521CD80904D3401CF503A6
:1029D00001D19D0607D0FF2A08D2D50506D0E4070D
:1029E0002043401970BD0125A843F4E7002A01DC0B
:1029F000E00770BD2402FF202043C00570BD1B0E00
:102A0000FF2A03D0FF2B01D0E00770BDFF2636065A
:102A10004500B54206D84D00B54203D8D218FF2A6A
:102A200000D0E7E7004870BD0000C07F70B5012509
:102A3000ED0704004C4022D4441A02D26C40001B23
:102A40000919C60D4B00F2B2FF2A4BD01B0E50D015
:102A500000020C02A8432C43D31ADC40051B05D509
:102A6000AD0019D36D08761E521E37D0F605280A20
:102A700001D2801970BD70416D0603D070BD6940F0
:102A8000FFF7E8FE9C4009026140490001D0401E6A
:102A900070BD0124A04370BD6D081DD001202B0C1A
:102AA00001D12D0410302B0E01D12D0208302B0F37
:102AB00001D12D01001DAB0F01D1AD00801CEB0F2A
:102AC00001D16D00401C361A121A6D00680AF50516
:102AD0004019012A02DB70BD002070BDC036300AEB
:102AE000C00770BD1B0E440201D1FF2B00D102486C
:102AF00070BD002AF0D070BD0000C07F0200000051
:102B000004000000060000000200000004000000B5
:102B100006000000020000000400000006000000A3
:102B20000600000002000000020000000200000099
:102B30000400000004000000040000000600000083
:102B40000600000006000000080000000204060263
:102B5000040602040606020202040404060606082D
:102B60000000000000000000000000000000000065
:102B7000000000F8000000000000003330000000FA
:102B800000100C06100C0600000000000000000001
:102B900040C07840C0784000043F04043F04040073
:102BA000007088FC08300000001820FF211E000083
:102BB000F008F000E018000000211C031E211E0098
:102BC00000F00888700000001E212324192721101E
:102BD00010160E00000000000000000000000000C1
:102BE000000000E018040200000000071820400068
:102BF00000020418E0000000004020180700000058
:102C0000404080F0804040000202010F01020200BB
:102C1000000000F0000000000101011F010101009F
:102C2000000000000000000080B070000000000004
:102C3000000000000000000000010101010101018D
:102C40000000000000000000003030000000000024
:102C500000000000806018040060180601000000F9
:102C600000E010080810E000000F102020100F00F6
:102C7000001010F8000000000020203F202000007D
:102C800000700808088870000030282422213000D5
:102C900000300888884830000018202020110E00DD
:102CA0000000C02010F8000000070424243F240086
:102CB00000F80888880808000019212020110E005B
:102CC00000E0108888180000000F112020110E006D
:102CD00000380808C83808000000003F0000000065
:102CE0000070880808887000001C222121221C0026
:102CF00000E010080810E0000000312222110F004F
:102D0000000000C0C00000000000003030000000E3
:102D10000000008000000000000080600000000053
:102D2000000080402010080000010204081020006C
:102D300040404040404040000404040404040400B7
:102D4000000810204080000000201008040201004C
:102D5000007048080808F00000000030360100004C
:102D6000C030C828E810E0000718272423140B00FF
:102D70000000C038E0000000203C23020227382079
:102D800008F8888888700000203F202020110E005D
:102D9000C030080808083800071820202010080054
:102DA00008F808080810E000203F202020100F003D
:102DB00008F88888E8081000203F20202320180009
:102DC00008F88888E8081000203F20000300000071
:102DD000C03008080838000007182020221E020012
:102DE00008F808000008F808203F210101213F20D1
:102DF000000808F8080800000020203F20200000FC
:102E000000000808F8080800C08080807F000000EB
:102E100008F888C028180800203F20012638200024
:102E200008F8080000000000203F2020202030008B
:102E300008F8F800F8F80800203F003F003F2000A5
:102E400008F830C00008F808203F200007183F00AD
:102E5000E01008080810E0000F10202020100F00DC
:102E600008F808080808F000203F210101010000CF
:102E7000E01008080810E0000F18242438504F0014
:102E800008F8888888887000203F2000030C3020D4
:102E900000708808080838000038202121221C0012
:102EA000180808F8080818000000203F200000005B
:102EB00008F808000008F808001F202020201F0044
:102EC0000878880000C83808000007380E010000A4
:102ED000F80800F80008F800033C0700073C03006E
:102EE000081868808068180820302C03032C3020D4
:102EF0000838C800C83808000000203F2000000043
:102F000010080808C838080020382621202018009A
:102F1000000000FE020202000000007F404040006E
:102F2000000C30C000000000000000010638C000A6
:102F300000020202FE000000004040407F0000004E
:102F40000000040202020400000000000000000073
:102F50000000000000000000808080808080808071
:102F60000002020400000000000000000000000059
:102F700000008080808000000019242222223F204F
:102F800008F8008080000000003F112020110E0092
:102F90000000008080800000000E11202020110021
:102FA000000000808088F800000E112020103F20D3
:102FB0000000808080800000001F22222222130057
:102FC000008080F0888888180020203F20200000A2
:102FD0000000808080808000006B94949493600057
:102FE00008F8008080800000203F210000203F2062
:102FF00000809898000000000020203F2020000062
:10300000000000809898000000C08080807F000051
:1030100008F8000080808000203F24022D3020002E
:10302000000808F8000000000020203F20200000D9
:103030008080808080808000203F20003F20003FF3
:103040008080008080800000203F210000203F2001
:103050000000808080800000001F202020201F00B2
:10306000808000808000000080FFA12020110E00E1
:103070000000008080808000000E112020A0FF80D2
:10308000808080008080800020203F21200001007F
:1030900000008080808080000033242424241900D4
:1030A000008080E0808000000000001F20200000E1
:1030B0008080000000808000001F202020103F2022
:1030C000808080000080808000010E3008060100B2
:1030D00080800080008080800F300C030C300F0057
:1030E00000808000808080000020312E0E31200082
:1030F000808080000080808080818E7018060100B2
:1031000000808080808080000021302C22213000CF
:1031100000000000807C020200000000003F4040F0
:1031200000000000FF00000000000000FF000000A1
:103130000002027C800000000040403F00000000D0
:10314000000601010202040400000000000000006B
:10315000C40900002E090000D00700002E0900005D
:10316000C800040196007800C50078006AFF0401D9
:10317000010500000000000308000008001F000017
:10318000E80300002001000008001F00020000000A
:103190000F270000010000000000000000000000F8
:1031A00004000000180000000030000004000000CF
:1031B00018000000003000000400000018000000AB
:1031C0000030000004000000180000000030000083
:1031D0004F41424548494A00F83200000000202093
:1031E000680E0000280100001001000043000000EC
:1031F000F8FFFFFF00404040404040404040414118
:1032000041414140404040404040404040404040BB
:103210004040404040050202020202020202020255
:103220000202020202202020202020202020200252
:1032300002020202020290909090909010101010E2
:10324000101010101010101010101010101010107E
:103250000202020202028888888888880808080812
:1032600008080808080808080808080808080808DE
:103270000202020240000000000000000000000006
:10328000000000000000000000000000000000003E
:10329000000000000000000000000000000000002E
:1032A000000000000000000000000000000000001E
:1032B000000000000000000000000000000000000E
:1032C00000000000000000000000000000000000FE
:1032D00000000000000000000000000000000000EE
:1032E00000000000000000000000000000000000DE
:0832F0000000000000000000D6
:04000005000000C136
:00000001FF
