:020000040000FA
:10000000381220206D01000071010000510900002C
:1000100000000000000000000000000000000000E0
:10002000000000000000000000000000750100005A
:1000300000000000000000007701000079010000CE
:100040007B0100007B0100007B0100007B010000C0
:100050007B0100007B0100007B0100007B010000B0
:10006000000000007B0100007B0100000000000098
:100070000000000011160000991600007B0100002E
:100080007B0100007B010000511500007B01000096
:100090007B0100007B010000000000000000000068
:1000A0007B0100007B010000000000000000000058
:1000B0007B010000000000007B0100007B010000CC
:1000C00000F002F800F042F80CA030C808382418FC
:1000D0002D18671EA246AB4654465D46AC4201D180
:1000E00000F034F87E460F3EB6460FCC0126334270
:1000F00000D0FB1A3343A246AB461847842A0000BF
:10010000A42A000000000000103A02D378C878C189
:10011000FAD8520701D330C830C101D504680C6049
:100120007047000000000000002300240025002686
:10013000103A01D378C1FBD8520700D330C100D5A3
:100140000B6070471FB51FBD10B510BD00F058FA09
:100150001146FFF7F7FF01F06BFD00F070FA03B4F2
:10016000FFF7F2FF03BC00F073FA000006480047F7
:10017000FEE7FEE7FEE7FEE7FEE7FEE70348044989
:10018000024A044B70470000C1000000380A2020DA
:1001900038122020380A2020D2B210B513029A1843
:1001A00013049A1800F001F810BD01E004C0091F03
:1001B0000429FBD28B0701D50280801CC90700D01F
:1001C0000270704700290BD0C30702D00270401C98
:1001D000491E022904D3830702D50280801C891E90
:1001E000E3E70022EEE70022DFE700000022030938
:1001F0008B4273D3030A8B4258D3030B8B423CD3FD
:10020000030C8B4221D312E003460B437FD4002220
:1002100043088B4274D303098B425FD3030A8B429A
:1002200044D3030B8B4228D3030C8B420DD309021A
:10023000FF2212BA030C8B4202D31212090265D0BC
:10024000030B8B4219D300E0090AC30B8B4201D385
:10025000CB03C01A5241830B8B4201D38B03C01ACC
:100260005241430B8B4201D34B03C01A5241030B43
:100270008B4201D30B03C01A5241C30A8B4201D3F4
:10028000CB02C01A5241830A8B4201D38B02C01A9F
:100290005241430A8B4201D34B02C01A5241030A16
:1002A0008B4201D30B02C01A5241CDD2C3098B42FB
:1002B00001D3CB01C01A524183098B4201D38B0178
:1002C000C01A524143098B4201D34B01C01A52411B
:1002D00003098B4201D30B01C01A5241C3088B4260
:1002E00001D3CB00C01A524183088B4201D38B004B
:1002F000C01A524143088B4201D34B00C01A5241ED
:10030000411A00D201465241104670475DE0CA0FC3
:1003100000D04942031000D3404253409C46002283
:1003200003098B422DD3030A8B4212D38901FC228D
:1003300012BA030A8B420CD3890192118B4208D363
:10034000890192118B4204D389013AD0921100E0C5
:100350008909C3098B4201D3CB01C01A52418309D9
:100360008B4201D38B01C01A524143098B4201D306
:100370004B01C01A524103098B4201D30B01C01A31
:100380005241C3088B4201D3CB00C01A52418308AB
:100390008B4201D38B00C01A5241D9D243088B4201
:1003A00001D34B00C01A5241411A00D201465241BA
:1003B000104663465B1001D34042002B00D54942F2
:1003C000704763465B1000D3404201B504490028E2
:1003D00002DC491C084000E00846C046C04602BD99
:1003E000FFFFFF7F7047704770470000F0B5FF25A3
:1003F0002D04C609C209FF2704462E400137CB0948
:100400003E4348402A402B400746002A6BD0002B31
:1004100069D0AA4267D0AB4265D0002800DA3246E4
:100420000125ED0529432C4309022002090AD21AAD
:100430004B0C7F24E31A434C000A7C44E35C7D248C
:100440002404121914145B00A218884201D3521C10
:1004500000E0400049420C465C4324115C43DB0150
:100460006415E318040A5C43C502200D0C4644439E
:100470006419250A5D432303EC0C0D466543000314
:100480000019EB184C42A34201D35B18401CD40561
:100490002018002B07D05B00C91804D3401C00298A
:1004A00001D1400840003F2189048A4209D3002A33
:1004B00008DC1106090F04D0032149074018C00FBA
:1004C000C007F0BD01224100120689187F225206A2
:1004D0009142F6D205214907C84201D59010F0BDDE
:1004E000FF20C005F0BD002F00DA32461648AA42B0
:1004F00007D2AB4205D21902090E17D0F80FC00778
:10050000F0BDFF2563002D06AB42F9D84900A94292
:10051000F6D8AB4201D1A942F2D0A94201D10021C3
:1005200001E061004908D0050843F0BD1102090E41
:10053000FBD0FF200243D005F0BD0A46014610461D
:1005400054E700006A1E00000000C07F10B501469D
:100550009E240002CA15A307002A02D01843002ACD
:1005600004DBA21A002A0CDDD04010BD1206120EC8
:1005700001D140004008A21A03D4D04040420028D4
:10058000F3DDFF2248001206904201D9002010BD81
:10059000C817C043584010BD1F22030C02D10F22C0
:1005A00000041CD0030E01D10002083A030F01D150
:1005B0000001121F830F01D18000921E002801DB71
:1005C0004000521ED20551180212511819229040B3
:1005D00004D3491C002801D1490849000846704746
:1005E000C10FC90700D04042012292071143D3E74F
:1005F00001218907D0E7000000487047080020204B
:100600007546FFF7F9FFAE46050069465346C00838
:10061000C000854618B020B5FFF7B0FD60BCB646F7
:1006200000260027C0C5C0C5C0C5C0C5C0C5C0C55F
:10063000C0C5C0C5403D490849008D46704710B54A
:100640000446C046C0462046FFF789FD10BD0000A5
:1006500001491820ABBEFEE72600020070470000EB
:10066000B0B50A78032313400B4A84580B4D25403C
:10067000EB18A92424061B198350072212064B6885
:1006800013401124240205599543EA180251001918
:1006900049780161B0BDC04608080000FCFFFF00BA
:1006A000811E091F00BFFCD270470000F0B5684AE8
:1006B0008218294BC318087920280DD000281DD195
:1006C0000C68641E5460D56E244C25408835D56670
:1006D0001646703688251DE00C68641E5460D46E82
:1006E0001E4D2C401E4EA419D466146F2C40A41924
:1006F0001467012465071B4C16460BE00C68640860
:100700005460D66E154C26400525ED017619D66647
:1007100016467036376827402F433760D46A4E4DEF
:100720002C40D462146B2C4014630024D4641465F0
:100730008F24E443D56F2540D5671D6825401D6093
:1007400049790143BD2008401168074B0B40C01890
:10075000801C1060F0BDC0468418000024F93FF0F2
:1007600001040000FFFFFFCF4000FFCFB0B54A6893
:10077000364BC250364A80180A78222A58D893003D
:1007800001A4E3589F46C046270800003108000036
:10079000270800003108000031080000310800007F
:1007A0003108000031080000310800003108000065
:1007B0003108000031080000310800003108000055
:1007C0003108000031080000150800003108000061
:1007D0001508000031080000310800003108000051
:1007E0003108000031080000310800003108000025
:1007F0003108000031080000310800003108000015
:100800003108000031080000150800003108000020
:100810001508000003231B0704689C4301235B07A2
:10082000E318036004E003231B0704689C4304608F
:100830000B8AC360CB68074C1C40C36A064D1D4041
:100840002B19C362097A11430160B0BD081800007A
:1008500004180000777702008888FDFF10B5072391
:100860009B04194092008018024A84589C436118E6
:10087000815010BD3018000010B5029CA400001972
:1008800011431943014A815010BDC0465018000061
:1008900092008018014A81507047C046101800002D
:1008A00010B50122120383180C789C604B7883509A
:1008B0008978014A815010BD0C110000B0B5112299
:1008C000120283580124A34383500B888C781C4365
:1008D0008B882343094C1C408358094D1D406319E4
:1008E00083508B79CC791C43097A21437E231940AC
:1008F000801842689A4351184160B0BD18670000E3
:10090000E798FDFF10B50122120383180C789C6054
:100910004978815010BD0000034A80180268120611
:10092000FCD481617047C046081100007047000088
:1009300002490A68101808607047C0460407202062
:10094000024801680022026008B27047001809409E
:1009500000F050F8012002A2014600F073FAFEE711
:10096000484152444641554C54000000F0B581B016
:100970004B20C00100F0D6FE00245021204600F09C
:10098000EFFE174800F0DCFF164800F0CDFF1648D8
:1009900000F0DAFE154D164E2746E819406800F0C3
:1009A000C1FE34703420032100F0EAFE642001F01F
:1009B000FFF8307800280FD1002030703420032158
:1009C00000F0DEFE642001F0F3F83078002803D157
:1009D000381D202F0746E0D100F00CF801B0F0BD23
:1009E000491500006D1400002D090000F82A0000D0
:1009F00000072020B0B5B02000F03AFA102000F037
:100A000037FA0025284600F033FA0024204600F08B
:100A10005FFA681C45B2002DF7D5B12000F028FA26
:100A2000102000F025FA204600F022FA0025284682
:100A300000F04EFA601C44B2002CF7D5B22000F052
:100A400017FA102000F014FA284600F011FA0024DA
:100A5000204600F03DFA681C45B2002DF7D5B320C2
:100A600000F006FA102000F003FA204600F000FA29
:100A70000025284600F02CFA601C44B2002CF7D563
:100A8000B42000F0F5F9102000F0F2F9284600F04B
:100A9000EFF90024204600F01BFA681C45B2002D37
:100AA000F7D5B52000F0E4F9102000F0E1F9204678
:100AB00000F0DEF90025284600F00AFA601C44B276
:100AC000002CF7D5B62000F0D3F9102000F0D0F9B3
:100AD000284600F0CDF90024204600F0F9F9681C02
:100AE00045B2002DF7D5B72000F0C2F9102000F074
:100AF000BFF9204600F0BCF9002000F0E9F9601CC5
:100B000044B2002CF8D5B0BDF0B581B0044640B277
:100B1000EE4E002802D40820306101E00820306049
:100B20000125284601F064F804273760284601F0C3
:100B30005FF83761284601F05BF8600602D40820B0
:100B4000306101E0082030600125284601F050F8AE
:100B50003760284601F04CF83761284601F048F824
:100B6000A00602D40820306101E008203060012591
:100B7000284601F03DF83760284601F039F8376122
:100B8000284601F035F8E00602D40820306101E083
:100B9000082030600125284601F02AF837602846F1
:100BA00001F026F83761284601F022F8200702D428
:100BB0000820306101E0082030600125284601F05E
:100BC00017F83760284601F013F83761284601F01E
:100BD0000FF8600702D40820306101E0082030607F
:100BE0000125284601F004F83760284601F000F896
:100BF0003761284600F0FCFFA00702D408203061CE
:100C000001E0082030600125284600F0F1FF376040
:100C1000284600F0EDFF3761284600F0E9FFE007C5
:100C200002D10820306101E0082030600124204614
:100C300000F0DEFF3760204600F0DAFF3761204623
:100C400000F0D6FF3760204600F0D2FF3761204623
:100C500000F0CEFF01B0F0BD80B5AE2000F008F985
:100C6000D52000F005F9802000F002F9A82000F05E
:100C7000FFF83F2000F0FCF8D32000F0F9F8002046
:100C800000F0F6F8402000F0F3F8A12000F0F0F8B2
:100C9000C82000F0EDF8DA2000F0EAF8122000F0A9
:100CA000E7F8812000F0E4F8CF2000F0E1F8D92047
:100CB00000F0DEF8F12000F0DBF8DB2000F0D8F8DF
:100CC000302000F0D5F8A42000F0D2F8A62000F0E3
:100CD000CFF88D2000F0CCF8142000F0C9F8AF2038
:100CE00000F0C6F8FFF786FE80BD0000F0B583B0C7
:100CF00016460C46400002907E30B0210191084318
:100D0000C0B200F0B5F8E700083FF8B204091034AB
:100D1000204600F0ADF808253D40284600F0A8F830
:100D2000300121494618214FF05D00F0D1F8F61945
:100D3000707800F0CDF8B07800F0CAF8F07800F0E4
:100D4000C7F8307900F0C4F8707900F0C1F8B079D4
:100D500000F0BEF8F07900F0BBF80298401E01994F
:100D60000843C0B200F084F8204600F081F828461D
:100D700000F07EF8307A00F0ABF8707A00F0A8F856
:100D8000B07A00F0A5F8F07A00F0A2F8307B00F01D
:100D90009FF8707B00F09CF8B07B00F099F8F07B36
:100DA00000F096F803B0F0BD0623000000FEFFFF40
:100DB000F0B587B003AC0FC4002B3ED00698451E9B
:100DC00041420291801E019000271D4E11E0012139
:100DD000059801F015F90A21FFF708FA30220A43B5
:100DE000E1B20398FFF782FF6D1E7F1C06988742D1
:100DF00023D004983C18F84302998842E7D0032195
:100E0000069A80180840019AD21B032A01D20121B8
:100E100005E02A468A4301217143121FFCD10028B4
:100E2000D6D0012801D10A2005E0022802D07D2079
:100E3000C00000E064204143CAE707B0F0BDC046EF
:100E400010270000F0B581B00646107800280DD0BC
:100E500014460D4600277919C9B2C2B23046FFF7D1
:100E600045FF7F1CF8B2205C0028F4D101B0F0BD32
:100E7000F0B581B00090794E0827376001242046F4
:100E800000F0B6FE04253560204600F0B1FE376163
:100E9000204600F0ADFE3561204600F0A9FE782026
:100EA000FFF732FE0020FFF72FFE0098FFF72CFE21
:100EB0003761204600F09CFE3560204600F098FE29
:100EC0003760204600F094FE01B0F0BD90320A4039
:100ED000F0B581B00090614E0827376001242046AC
:100EE00000F086FE04253560204600F081FE376163
:100EF000204600F07DFE3561204600F079FE782026
:100F0000FFF702FE4020FFF7FFFD0098FFF7FCFD12
:100F10003761204600F06CFE3560204600F068FE28
:100F20003760204600F064FE01B0F0BD80B50D488A
:100F30000D49FFF795FB0D4841680D4A0A40012114
:100F40004B04D218426082680A4B134083600A4AFD
:100F5000002313600A0403681343036002680A4312
:100F6000026080BD00200040202B000000310040C6
:100F7000FEFFECFFF8FFE0E08031004080B50C4858
:100F80000C49FFF78DFC0C480C49C1620022C26776
:100F90000B4B036001630B490A6003600A4941601F
:100FA0000A4901220A6001681143016080BDC04600
:100FB00000000940282B000004180940010002002D
:100FC0001292001084180940FFFF00000811094028
:100FD00010B51D4986200863012253051B48036094
:100FE00088234B6392050260194B5C1D194A5460BB
:100FF0001C1D14608224946053619465D365CC6495
:101000000B654C664B65144C54638C62CC625B1E62
:101010008B638B648B6681239364D36413665366FE
:101020009363D3630B604B608B600146303973224E
:1010300012020A60026003200002084908610C22C3
:101040000A600C30086410BD88804240D0120A400B
:1010500082000400048042408100060090320A4071
:10106000F0B581B01A4C1B492046FFF719FC1A490C
:101070002046FFF71BFB7D20C60000252046314699
:101080002A46FFF705FC0095204629462A462B46AE
:10109000FFF7F2FB204629462A46FFF7DFFB012730
:1010A000204631463A46FFF7F3FB00972046294693
:1010B0002A462B46FFF7E0FB204629463A46FFF733
:1010C000CDFB064887600321016001B0F0BDC0463A
:1010D000008086402B2B0000302B000000918640C2
:1010E0000C48002101600320C1430B480246083A26
:1010F00013680B40136001680122914301601102E3
:1011000003688B4303601103001F02680A430260F7
:101110007047C04608030B4008010B4005480421F6
:1011200001601F21416000218160016805220A439E
:101130000260704710E000E010B50D4C0D492046EC
:10114000FFF7AEFB0C492046FFF710FB0B48016888
:10115000012211430160FF20000409490B68834309
:1011600003208005181808600648026010BDC046BC
:1011700000008640382B00003C2B000028108640E1
:1011800010E400E00811864010B51C4C1C492046B4
:10119000FFF7B8FB1B492046FFF790FB0321CA036A
:1011A00019480368934303600269764B13401A336E
:1011B000036142690A433C218A434261426801213A
:1011C0000A4043688B439A184260104A1368554C92
:1011D0001C4314604A04036813430360C26820235D
:1011E000134350229343C360C26802231343052272
:1011F0009343C36002680A43026010BD0080104040
:10120000502B0000522B00000091104028901040FD
:1012100010B51D4C1D492046FFF774FB1C492046A4
:10122000FFF74CFB0320C1031A4802688A4302609F
:101230000169544A0A40911C016141690B220A4329
:1012400034218A434261426801210A4043688B434A
:101250009A184260104A1368324C1C4314604A04C6
:10126000036813430360C26820231343502293434F
:10127000C360C2680223134305229343C36002681C
:101280000A43026010BDC046000010405C2B000005
:101290005E2B0000001110402810104010B51C4CAF
:1012A0001C492046FFF72EFB1B492046FFF706FB93
:1012B0000321CA0319480368934303600269314B51
:1012C00013401A33036142690A433C218A43426155
:1012D000426801210A4043688B439A184260104AD1
:1012E0001368104C1C4314604A04036813430360E2
:1012F000C2682023134350229343C360C268022371
:10130000134305229343C36002680A43026010BD81
:1013100000201040682B00006A2B000000311040B4
:10132000283010401704000010B5124C1249204616
:10133000FFF7E8FA11492046FFF7C0FA0321CA0374
:101340000F4803689343036002690E4B13401A333E
:10135000036142690A433C218A4342614168012298
:10136000114043689343591841600168114301607B
:1013700010BDC04600005040742B0000762B0000CA
:10138000001150400000FFFF80B500F02BF8FFF780
:101390001FFEFFF7A5FEFFF763FEFFF7EFFDFFF768
:1013A000CBFEFFF7F1FEFFF733FFFFF777FFFFF705
:1013B000BBFFFFF7BBFDFFF7B1FE7420054900221C
:1013C0000A5405490A54B82004490A542C200449F7
:1013D0000A5480BDE40020205C012020D40120209C
:1013E00090022020F0B581B01448154A426015489B
:1013F00042601548426015484260154D6A60154EBE
:101400007260154F7A60154B5A6015494A6015484D
:101410004260154A094C22600A4C22600A4C226044
:101420000A4C22602A6032603A601A600A600260E8
:101430001020FFF735F901B0F0BDC04600080A40A2
:10144000030000B100280A400088864000080940D7
:101450000008864000881040000810400028104016
:10146000000850400028004001000026F0B583B07D
:10147000002962D003230C461C404A1E032A35D3A0
:10148000009499432E4A8318363B019033380290DA
:1014900000252C4E05E03278024332702D1DA94202
:1014A00021D002984219D71E8020092F074600D864
:1014B0005F5D34783C433470941E092C074601D894
:1014C0005C19677834783C433470541E092C074605
:1014D00001D85C19A77834783C433470092ADAD8EB
:1014E0005819C078D7E701984019009C002C24D0E7
:1014F0000246363A092A02D811498A5C00E0802265
:1015000010490B7813430B70012C16D00346353B62
:10151000092B02D80A4AD35C00E080230A781A43D8
:101520000A70022C09D03438092802D8044A105C09
:1015300000E080200A7802430A7003B0F0BDC04684
:10154000E82200000007202080B500F0EDF880BD03
:10155000F0B581B02148006800063DD0204D2868D4
:10156000401C28601F480188491C0180FFF7E8F9EA
:101570000446FFF7DDF91C490868001908602A686D
:10158000142A29DB00222A600A6018498F5E184E4F
:10159000378018498D5E184C2580FFF721F81749D0
:1015A000FEF724FF164900F027FE164900F024FE3E
:1015B000FEF7CCFF144908807D20C0001349874204
:1015C000024602DC8F420A4600DA3280854202DCA3
:1015D0008D42084600DA208001B0F0BD2010864020
:1015E000DC002020D0002020D8002020E000202097
:1015F000D2002020E2002020D40020200000B644A9
:10160000717D524300004842CE00202018FCFFFFAD
:1016100070B51C480168CAB20B2A31D8012191402B
:101620002C22114213D01621816217480168490704
:1016300026D4C1690168490722D4C16901684907F4
:101640001ED4C169016849071AD4C169EEE7304860
:10165000014215D00C480168490711D40B490C4AC6
:101660000C4B02E0046864070AD4C4690D886D1C41
:10167000EDB21688B542F5D00E889C550D80F1E785
:1016800070BDC04620101040081110402E092020C7
:10169000300920202E08202070B51C480168CAB2ED
:1016A0000B2A31D8012191402C22114213D016214E
:1016B000816218480168490726D4C1690168490751
:1016C00022D4C169016849071ED4C169016849076C
:1016D0001AD4C169EEE70E48014215D00D480168E1
:1016E000490711D40C490D4A0D4B02E00468640708
:1016F0000AD4C4690D886D1CEDB21688B542F5D0C8
:101700000E889C550D80F1E770BDC046203010401A
:101710000208000008311040320A2020340A20203C
:10172000320920207047000070B5002909D00C460E
:101730000546044E29783046FFF7EEF86D1C641E0E
:10174000F8D170BD00201040002803D00349086084
:10175000002070470520C0437047C0463805202050
:10176000032802D90520C0437047674A11706349B6
:1017700008600249002008607047C0461008202019
:10178000F0B585B00D46044609180420C743781EFD
:101790008F2901D905B0F0BD584909680329F9D846
:1017A0007944097949008F440112546A042DF1D813
:1017B00068480268002A3846ECD003A8C470272184
:1017C000817057490180210A017105218FE061482C
:1017D0000668002E62D068004A490140FB295AD8A9
:1017E00003A84571C47003214170290A0291017157
:1017F000270A8770444909780170FF228A434649C5
:10180000895C464B9A5CFC235340444AD25C4A4074
:101810007A40D1B2404A575C0197404F795CD35C23
:101820004B406340D9B27B5C019A5340029A5340CB
:10183000DAB2BB5C384F795C59406940C9B27B5C15
:10184000C371BA5C354B595C514081710821B04776
:101850004EE0032D9ED82F480368002B384699D0C0
:1018600003A9CC7027208870AA204870FF20087038
:10187000200A0871244800780522984738E020485B
:101880000668002E0AD01F48801C6B000340012010
:101890000002834205D9781C05B0F0BD384605B07A
:1018A000F0BD19480078E1B24006000E174AB04773
:1018B00001281DD1214801680029384600D169E777
:1018C0000291002D114A0FD0002111480B464E0005
:1018D000975D961976783602F6190919490046522D
:1018E0005B1C99B2A942F2D320462946029A90473E
:1018F0000C480460002005B0F0BDC0460808202058
:101900003C052020FCFF00000000202008072020CC
:10191000E005202034052020F6290000F6280000EC
:10192000FFAA00000C082020002803D0034908600B
:10193000002070470520C0437047C0464005202066
:10194000002803D003490860002070470520C043E9
:101950007047C04644052020F0B58BB00D460746C1
:101960008E4E3221FF2430462246FEF715FC0194AC
:101970006000F9090140F8B20A220492504330187D
:1019800047543A0A864B5A701F70864B01240794BD
:101990001C7040184270280A03900027069705958E
:1019A00006E0059D0798C0B2F9B2814200D1EBE094
:1019B0003846791CCAB2192A069F00D00F46C0B219
:1019C0004000774A115C10184078EAB2914204D185
:1019D000039AD2B2904200D1D4E005231A464A437A
:1019E000089216184A1CD5B2042D0A9714D8042858
:1019F00012D8192777436C4CE7191C466C432418FE
:101A00003C5D002C07D1049C6543644C651947007C
:101A1000EC5DFF2C35D00A9F0429099616D8421C8C
:101A2000D5B2042D12D8089C6419192777435E4E4D
:101A3000F7193C5D002C07D1049C4C43574F3F19CC
:101A40006D007C5DFF2C35D00A9F099E4A1ED5B2E1
:101A5000042D59D8042857D819247443524E3419E8
:101A60006B431B18E35C002B07D1049B5D434B4B7E
:101A70005C194500635DFF2B34D0099E042946D9CB
:101A80008FE7EC190294079CE5B26D00444F7A553C
:101A9000029A50701170641C424A14707A19507086
:101AA0000794E2B2192A0A9FB6D100243D4A07944E
:101AB0001470B1E77C19079EF5B26D00384F795567
:101AC00060702170761C374C26707C196270079606
:101AD000F2B2192A0A9F099EB8D10024314A07940C
:101AE0001470B3E76619079BDCB264002C4D2A55CD
:101AF000707031705B1C2B4A13702A195070079359
:101B0000DAB2192A099E36D0042900D949E7421EC3
:101B1000D4B2042C00D944E7089B1B19192575433E
:101B2000214E7519EB5C002B00D03AE7049B4B4328
:101B30001A4DEB1864001D5DFF2D059D00D031E7A7
:101B40001B190993079BDCB26400154E31552646DC
:101B5000099C607021705B1C12480370104880194A
:101B600042700793D8B2192800D01BE700210D4816
:101B70000791017016E700230A4A0793137004299E
:101B8000C5D90EE7039902E00198054601460748CA
:101B90000770E8B2090208180BB0F0BD7C052020E0
:101BA000AE05202014082020C1022020C0022020E1
:101BB00010B57D21090241431C480268002301E061
:101BC0008B4214D214460268944208D102689442AF
:101BD00005D10268944202D102689442F3D01B19E5
:101BE0009B1A9442ECD8041F24681B19E8E710BD27
:101BF00010B50E490A684001002301E0834214D267
:101C000014460A68944208D10A68944205D10A68C9
:101C1000944202D10A689442F3D01B199B1A944251
:101C2000ECD80C1F24681B19E8E710BD18E000E091
:101C300082B0FFF7A9FBFFF70FF8FEF797FE01222E
:101C400053036348036063490B60930303600B60B5
:101C5000082303600B60920402600A6002600A605D
:101C60005D4E3078012808D03078012805D03078D2
:101C7000012802D030780128F3D10125574C28469D
:101C800029462246FFF7DEF8204600F087F90024B7
:101C9000347053A228462946FFF7D4F87D20C000AF
:101CA000FFF786FFFEF7A6FEFF22204621461346D9
:101CB00000F09AF80220C643B44D28780028019617
:101CC00021D0B44F0321204600F09AF9411CCBB239
:101CD00000937043201805254543681CC1B23A782B
:101CE000012618463346FFF763F8E81CA74DC1B23A
:101CF0007A7800983346019EFFF75AF8BF1C641C9F
:101D000028788442DED33748FFF752FFFEF772FE91
:101D10000120022203210B4600F066F828780028F3
:101D20002F4622D000259B4C0321284600F068F95D
:101D3000411CCBB200937043281805264643701C03
:101D4000C1B22278012718463B46FFF731F8F01C54
:101D5000019EC1B2627800983B468C4FFFF728F88D
:101D6000A41C6D1C38788542DED31E48FFF720FF87
:101D7000FEF740FE02200321FF22134600F034F854
:101D80003878002822D00024824F0321204600F01A
:101D900037F9411CCBB20093704320180525454309
:101DA000681CC1B23A78012618463346FFF700F89E
:101DB000E81CC1B27A7800983346019EFEF7F8FF1E
:101DC000BF1C641C714800788442DED3FEE7C04625
:101DD00080E200E000E100E06800202069002020AF
:101DE0006F6B000088130000F0B58FB00093019274
:101DF0000D460646644A11784F007E4CE05D33463E
:101E0000B04205D1E0194078A84201D1491C1170B7
:101E10001C4677480078C9B2814256D20198FF2803
:101E200015D00098FF2812D0052006466643771982
:101E3000019A4243009816181922134673435448D6
:101E4000C3180120D8557A43514B9A189055694AC6
:101E50004800115C1018407800024118280200194F
:101E6000FFF77AFDC1B2FF292FD0FF2212020346ED
:101E70001340934229D0019480B2040A0020012625
:101E800002E0401C002A30D1671B7A1E9741019A5C
:101E90009142324600D13A46002A1BD0C2B25200CB
:101EA00002AFB954BA1854700A224A433A49891801
:101EB00062008B185C782346FF3B5F425F41895C80
:101EC000FF293246DDD03A46DBE730480021017079
:101ED0000FB0F0BD01060AD003210140C2B2531E6B
:101EE000032B019205D2002323E0002047E00020CD
:101EF00045E0FC240440530002ADED18083D254B9D
:101F00001E1D0023371FEA797A70AA793A70B21E33
:101F10006F7957702F791770EA787270AA783270DB
:101F20006A78F2702A78B270083D08361B1D9C4210
:101F3000E8D1002923D0DA43019C1219520002ADE6
:101F4000AC5C5E00134FBC55124CA419AA18527811
:101F50006270012913D00222D243D21A019BD218F7
:101F6000520002ABD318DD78E5709B78A37002298C
:101F700005D002A98B5C23718918497861710349E6
:101F800008700FB0F0BDC0462D0820207A05202033
:101F9000C1022020480520207C052020F0B51449EE
:101FA0000F78C65D002E17D0124A134B134D3C46D6
:101FB00009E076B2995DAE5D79703E70641CE7B25F
:101FC000C65D002E09D079005718413EF1B20929AB
:101FD000EFD900263146EFE73C46601CC1B249000C
:101FE000044A04235354024C207050184370F0BD2F
:101FF0000100202015082020FC220000F222000011
:1020000043088B421AD3002203098B4279D3030A77
:102010008B425ED3030B8B4242D3030C8B4227D3FC
:102020000902FF2212BA030C8B4202D312120902D8
:1020300003D0030B8B4233D31AE0D3E0411A804123
:10204000401C704703460B4371D443088B42F5D3C1
:10205000002203098B4254D3030A8B4239D3030B6A
:102060008B421DD3030C8B4202D394466EE0090AC7
:10207000C30B8B4201D3CB03C01A5241830B8B425B
:1020800001D38B03C01A5241430B8B4201D34B0344
:10209000C01A5241030B8B4201D30B03C01A5241A9
:1020A000C30A8B4201D3CB02C01A5241830A8B422E
:1020B00001D38B02C01A5241430A8B4201D34B0217
:1020C000C01A5241030A8B4201D30B02C01A52417B
:1020D000CDD2C3098B4201D3CB01C01A524183092F
:1020E0008B4201D38B01C01A524143098B4201D369
:1020F0004B01C01A524103098B4201D30B01C01A94
:102100005241C3088B4201D3CB00C01A524183080D
:102110008B4201D38B00C01A524143088B4201D33A
:102120004B00C01A5241411A524110007047CA0F69
:1021300000D04942031000D34042534000229C4645
:1021400003098B422DD3030A8B4212D38901FC224F
:1021500012BA030A8B420CD3890192118B4208D325
:10216000890192118B4204D3890137D0921100E08A
:102170008909C3098B4201D3CB01C01A524183099B
:102180008B4201D38B01C01A524143098B4201D3C8
:102190004B01C01A524103098B4201D30B01C01AF3
:1021A0005241C3088B4201D3CB00C01A524183086D
:1021B0008B4201D38B00C01A5241D9D243088B42C3
:1021C00001D34B00C01A5241411A00D2014652417C
:1021D000104663465B1000D34042704763465B1075
:1021E00000D3404201B50021004201D0C943084656
:1021F000C046C04602BD000070B5420064414B00BD
:102200005C41120E39D01B0E38D0FF2A3CD0FF2B78
:102210003AD0D2187F3A40024902400A490A45188A
:10222000ED0106004E43000A090A48430104731AEF
:102230004019190C4318990F04D05B080121490774
:102240005B1A521CD80904D3401CF50301D19D062A
:1022500007D0FF2A08D2D50506D0E407204340194D
:1022600070BD0125A843F4E7002A01DCE00770BD3A
:102270002402FF202043C00570BD1B0EFF2A03D09F
:10228000FF2B01D0E00770BDFF2636064500B542A2
:1022900006D84D00B54203D8D218FF2A00D0E7E790
:1022A000004870BD0000C07F818283848586878856
:1022B000898B8C8D8E8F919293959697999A9C9DF0
:1022C0009FA0A2A3A5A7A8AAACAEB0B2B3B5B7B958
:1022D000BCBEC0C2C5C7C9CCCED1D4D7D9DCDFE221
:1022E000E6E9ECF0F3F7FAFE0180800280800880D6
:1022F000800401010102020203030304010203013D
:1023000002030102030300000000000000000000BF
:10231000000000000000000000F8000000000000C5
:1023200000333000000000100C06100C0600000006
:1023300000000000000040C07840C0784000043F2A
:1023400004043F040400007088FC083000000018FA
:1023500020FF211E0000F008F000E018000000211E
:102360001C031E211E0000F00888700000001E21C2
:1023700023241927211010160E0000000000000071
:10238000000000000000000000E01804020000004F
:1023900000071820400000020418E0000000004080
:1023A000201807000000404080F0804040000202FA
:1023B000010F01020200000000F000000000010116
:1023C000011F01010100000000000000000080B0BA
:1023D000700000000000000000000000000000018C
:1023E00001010101010100000000000000000030B7
:1023F0003000000000000000000080601804006051
:1024000018060100000000E010080810E000000FAE
:10241000102020100F00001010F800000000002015
:10242000203F20200000007008080888700000305D
:102430002824222130000030088888483000001805
:10244000202020110E000000C02010F8000000071E
:102450000424243F240000F8088888080800001994
:10246000212020110E0000E0108888180000000FC5
:10247000112020110E0000380808C838080000009C
:10248000003F000000000070880808887000001CF1
:10249000222121221C0000E010080810E0000000AA
:1024A000312222110F00000000C0C0000000000017
:1024B000003030000000000000800000000000003C
:1024C0008060000000000000804020100800000133
:1024D00002040810200040404040404040000404F6
:1024E00004040404040000081020408000000020C0
:1024F000100804020100007048080808F0000000FD
:10250000003036010000C030C828E810E00007188D
:10251000272423140B000000C038E0000000203CFA
:1025200023020227382008F8888888700000203F9E
:10253000202020110E00C0300808080838000718B5
:1025400020202010080008F808080810E000203FAC
:10255000202020100F0008F88888E8081000203F8D
:1025600020202320180008F88888E8081000203F61
:10257000200003000000C0300808083800000718D9
:102580002020221E020008F808000008F808203F5A
:10259000210101213F20000808F808080000002060
:1025A000203F2020000000000808F8080800C08034
:1025B00080807F00000008F888C028180800203FAD
:1025C00020012638200008F8080000000000203F05
:1025D00020202020300008F8F800F8F80800203FFC
:1025E000003F003F200008F830C00008F808203FF6
:1025F000200007183F00E01008080810E0000F1046
:10260000202020100F0008F808080808F000203FDC
:10261000210101010000E01008080810E0000F1877
:10262000242438504F0008F8888888887000203F9C
:102630002000030C3020007088080808380000389B
:10264000202121221C00180808F8080818000000A2
:10265000203F2000000008F808000008F808001FCC
:10266000202020201F000878880000C838080000BB
:1026700007380E010000F80800F80008F800033CD5
:102680000700073C0300081868808068180820309D
:102690002C03032C30200838C800C838080000007C
:1026A000203F2000000010080808C8380800203823
:1026B000262120201800000000FE02020200000077
:1026C000007F40404000000C30C0000000000000CF
:1026D00000010638C00000020202FE0000000040B7
:1026E00040407F00000000000402020204000000DD
:1026F00000000000000000000000000000008080DA
:1027000080808080808000020204000000000000C1
:1027100000000000000000008080808000000019A0
:10272000242222223F2008F8008080000000003F81
:10273000112020110E000000008080800000000E9B
:10274000112020201100000000808088F800000E79
:10275000112020103F200000808080800000001F9A
:10276000222222221300008080F08888881800200E
:10277000203F202000000000808080808000006BCF
:1027800094949493600008F8008080800000203FBB
:10279000210000203F2000809898000000000020C9
:1027A000203F20200000000000809898000000C01A
:1027B0008080807F000008F8000080808000203F3B
:1027C00024022D302000000808F80000000000203E
:1027D000203F202000008080808080808000203F7B
:1027E00020003F20003F8080008080800000203F4C
:1027F000210000203F200000808080800000001F1A
:10280000202020201F00808000808000000080FFAA
:10281000A12020110E000000008080808000000EAA
:10282000112020A0FF8080808000808080002020F8
:102830003F21200001000000808080808000003364
:10284000242424241900008080E0808000000000FF
:10285000001F202000008080000000808000001FFA
:10286000202020103F208080800000808080000198
:102870000E300806010080800080008080800F30CC
:102880000C030C300F00008080008080800000204E
:10289000312E0E3120008080800000808080808179
:1028A0008E701806010000808080808080000021EA
:1028B000302C2221300000000000807C0202000049
:1028C0000000003F404000000000FF00000000004A
:1028D0000000FF0000000002027C800000000040B9
:1028E000403F000000000006010102020404000055
:1028F00000000000000000C1814001C0804101C013
:10290000804100C1814001C0804100C1814000C1BF
:10291000814001C0804101C0804100C1814000C1AF
:10292000814001C0804100C1814001C0804101C09F
:10293000804100C1814001C0804100C1814000C18F
:10294000814001C0804100C1814001C0804101C07F
:10295000804100C1814000C1814001C0804101C06F
:10296000804100C1814001C0804100C1814000C15F
:10297000814001C0804101C0804100C1814000C14F
:10298000814001C0804100C1814001C0804101C03F
:10299000804100C1814000C1814001C0804101C02F
:1029A000804100C1814001C0804100C1814000C11F
:1029B000814001C0804100C1814001C0804101C00F
:1029C000804100C1814001C0804100C1814000C1FF
:1029D000814001C0804101C0804100C1814000C1EF
:1029E000814001C0804100C1814001C0804101C0DF
:1029F000804100C1814000C0C101C30302C2C606BC
:102A000007C705C5C404CC0C0DCD0FCFCE0E0ACA26
:102A1000CB0BC90908C8D81819D91BDBDA1A1EDE76
:102A2000DF1FDD1D1CDC14D4D515D71716D6D21226
:102A300013D311D1D010F03031F133F3F23236F636
:102A4000F737F53534F43CFCFD3DFF3F3EFEFA3AE6
:102A50003BFB39F9F83828E8E929EB2B2AEAEE2E76
:102A60002FEF2DEDEC2CE42425E527E7E62622E2E6
:102A7000E323E12120E0A06061A163A3A26266A636
:102A8000A767A56564A46CACAD6DAF6F6EAEAA6AA6
:102A90006BAB69A9A86878B8B979BB7B7ABABE7EF6
:102AA0007FBF7DBDBC7CB47475B577B7B67672B2A6
:102AB000B373B17170B05090915193535292965636
:102AC0005797559594549C5C5D9D5F9F9E5E5A9A66
:102AD0009B5B99595898884849894B8B8A4A4E8EF6
:102AE0008F4F8D4D4C8C4484854587474686824266
:102AF000438341818040000000000000C0120000BC
:102B000080250000004B00000096000000E100005E
:102B100000C20100008403000008070000100E003E
:102B2000010500000000000308000008001F00006D
:102B3000E80300002001000008001F000200000060
:102B4000E70300000100000000000000000000009A
:102B50000400000018000000003000000400000025
:102B60001800000000300000040000001800000001
:102B700000300000040000001800000000300000D9
:102B8000A02B000000002020080000000801000029
:102B9000A82B0000080020203012000028010000AF
:082BA000FF020000000000002C
:04000005000000C136
:00000001FF
