:020000040000FA
:10000000281120208D0100009101000071090000DD
:1000100000000000000000000000000000000000E0
:10002000000000000000000000000000950100003A
:10003000000000000000000097010000990100008E
:100040009B0100009B0100009B0100009B01000040
:100050009B0100009B0100009B0100009B01000030
:10006000000000009B0100009B0100000000000058
:100070000000000029160000B11600009B010000DE
:100080009B0100009B010000691500009B0100001E
:100090009B0100009B010000000000000000000028
:1000A0009B0100009B010000000000000000000018
:1000B0009B010000000000009B0100009B0100006C
:1000C00000F002F800F052F812A030C808382418E6
:1000D0002D18AC4201D100F049F80FCCA246AB4636
:1000E0000CA730CF2D1B083F3F197C427F1E544484
:1000F0002D090426F441641EAC4201D300F036F809
:100100000126334200D0FB1A3343984754465D46DC
:10011000DFE70000AC290000CC290000000000004F
:10012000103A02D378C878C1FAD8520701D330C840
:1001300030C101D504680C60704700000000000069
:100140007047000000000000002300240025002666
:10015000103A01D378C1FBD8520700D330C100D583
:100160000B6070471FB51FBD10B510BD00F058FAE9
:100170001146FFF7F7FF01F031FD00F070FA03B40C
:10018000FFF7F2FF03BC00F073FA000006480047D7
:10019000FEE7FEE7FEE7FEE7FEE7FEE70348044969
:1001A000024A044B70470000C100000028092020CB
:1001B0002811202028092020D2B210B513029A1845
:1001C00013049A1800F001F810BD01E004C0091FE3
:1001D0000429FBD28B0701D50280801CC90700D0FF
:1001E0000270704700290BD0C30702D00270401C78
:1001F000491E022904D3830702D50280801C891E70
:10020000E3E70022EEE70022DFE700000022030917
:100210008B4273D3030A8B4258D3030B8B423CD3DC
:10022000030C8B4221D312E003460B437FD4002200
:1002300043088B4274D303098B425FD3030A8B427A
:1002400044D3030B8B4228D3030C8B420DD30902FA
:10025000FF2212BA030C8B4202D31212090265D09C
:10026000030B8B4219D300E0090AC30B8B4201D365
:10027000CB03C01A5241830B8B4201D38B03C01AAC
:100280005241430B8B4201D34B03C01A5241030B23
:100290008B4201D30B03C01A5241C30A8B4201D3D4
:1002A000CB02C01A5241830A8B4201D38B02C01A7F
:1002B0005241430A8B4201D34B02C01A5241030AF6
:1002C0008B4201D30B02C01A5241CDD2C3098B42DB
:1002D00001D3CB01C01A524183098B4201D38B0158
:1002E000C01A524143098B4201D34B01C01A5241FB
:1002F00003098B4201D30B01C01A5241C3088B4240
:1003000001D3CB00C01A524183088B4201D38B002A
:10031000C01A524143088B4201D34B00C01A5241CC
:10032000411A00D201465241104670475DE0CA0FA3
:1003300000D04942031000D3404253409C46002263
:1003400003098B422DD3030A8B4212D38901FC226D
:1003500012BA030A8B420CD3890192118B4208D343
:10036000890192118B4204D389013AD0921100E0A5
:100370008909C3098B4201D3CB01C01A52418309B9
:100380008B4201D38B01C01A524143098B4201D3E6
:100390004B01C01A524103098B4201D30B01C01A11
:1003A0005241C3088B4201D3CB00C01A524183088B
:1003B0008B4201D38B00C01A5241D9D243088B42E1
:1003C00001D34B00C01A5241411A00D2014652419A
:1003D000104663465B1001D34042002B00D54942D2
:1003E000704763465B1000D3404201B504490028C2
:1003F00002DC491C084000E00846C046C04602BD79
:10040000FFFFFF7F7047704770470000F0B5FF2582
:100410002D04C609C209FF2704462E400137CB0927
:100420003E4348402A402B400746002A6BD0002B11
:1004300069D0AA4267D0AB4265D0002800DA3246C4
:100440000125ED0529432C4309022002090AD21A8D
:100450004B0C7F24E31A434C000A7C44E35C7D246C
:100460002404121914145B00A218884201D3521CF0
:1004700000E0400049420C465C4324115C43DB0130
:100480006415E318040A5C43C502200D0C4644437E
:100490006419250A5D432303EC0C0D4665430003F4
:1004A0000019EB184C42A34201D35B18401CD40541
:1004B0002018002B07D05B00C91804D3401C00296A
:1004C00001D1400840003F2189048A4209D3002A13
:1004D00008DC1106090F04D0032149074018C00F9A
:1004E000C007F0BD01224100120689187F22520682
:1004F0009142F6D205214907C84201D59010F0BDBE
:10050000FF20C005F0BD002F00DA32461648AA428F
:1005100007D2AB4205D21902090E17D0F80FC00757
:10052000F0BDFF2563002D06AB42F9D84900A94272
:10053000F6D8AB4201D1A942F2D0A94201D10021A3
:1005400001E061004908D0050843F0BD1102090E21
:10055000FBD0FF200243D005F0BD0A4601461046FD
:1005600054E700009E1D00000000C07F10B501464A
:100570009E240002CA15A307002A02D01843002AAD
:1005800004DBA21A002A0CDDD04010BD1206120EA8
:1005900001D140004008A21A03D4D04040420028B4
:1005A000F3DDFF2248001206904201D9002010BD61
:1005B000C817C043584010BD1F22030C02D10F22A0
:1005C00000041CD0030E01D10002083A030F01D130
:1005D0000001121F830F01D18000921E002801DB51
:1005E0004000521ED2055118021251181922904093
:1005F00004D3491C002801D1490849000846704726
:10060000C10FC90700D04042012292071143D3E72E
:1006100001218907D0E7000000487047080020202A
:100620007546FFF7F9FFAE46050069465346C00818
:10063000C000854618B020B5FFF7B0FD60BCB646D7
:1006400000260027C0C5C0C5C0C5C0C5C0C5C0C53F
:10065000C0C5C0C5403D490849008D46704710B52A
:100660000446C046C0462046FFF789FD10BD000085
:1006700001491820ABBEFEE72600020070470000CB
:10068000B0B50A78032313400B4A84580B4D25401C
:10069000EB18A92424061B198350072212064B6865
:1006A00013401124240205599543EA1802510019F8
:1006B00049780161B0BDC04608080000FCFFFF009A
:1006C000811E091F00BFFCD270470000F0B5684AC8
:1006D0008218294BC318087920280DD000281DD175
:1006E0000C68641E5460D56E244C25408835D56650
:1006F0001646703688251DE00C68641E5460D46E62
:100700001E4D2C401E4EA419D466146F2C40A41903
:100710001467012465071B4C16460BE00C6864083F
:100720005460D66E154C26400525ED017619D66627
:1007300016467036376827402F433760D46A4E4DCF
:100740002C40D462146B2C4014630024D4641465D0
:100750008F24E443D56F2540D5671D6825401D6073
:1007600049790143BD2008401168074B0B40C01870
:10077000801C1060F0BDC0468418000024F93FF0D2
:1007800001040000FFFFFFCF4000FFCFB0B54A6873
:10079000364BC250364A80180A78222A58D893001D
:1007A00001A4E3589F46C0464708000051080000D6
:1007B00047080000510800005108000051080000DF
:1007C00051080000510800005108000051080000C5
:1007D00051080000510800005108000051080000B5
:1007E00051080000510800003508000051080000C1
:1007F00035080000510800005108000051080000B1
:100800005108000051080000510800005108000084
:100810005108000051080000510800005108000074
:100820005108000051080000350800005108000080
:100830003508000003231B0704689C4301235B0762
:10084000E318036004E003231B0704689C4304606F
:100850000B8AC360CB68074C1C40C36A064D1D4021
:100860002B19C362097A11430160B0BD081800005A
:1008700004180000777702008888FDFF10B5072371
:100880009B04194092008018024A84589C436118C6
:10089000815010BD3018000010B5029CA400001952
:1008A00011431943014A815010BDC0465018000041
:1008B00092008018014A81507047C046101800000D
:1008C00010B50122120383180C789C604B7883507A
:1008D0008978014A815010BD0C110000B0B5112279
:1008E000120283580124A34383500B888C781C4345
:1008F0008B882343094C1C408358094D1D406319C4
:1009000083508B79CC791C43097A21437E2319408B
:10091000801842689A4351184160B0BD18670000C2
:10092000E798FDFF10B50122120383180C789C6034
:100930004978815010BD0000034A801802681206F1
:10094000FCD481617047C046081100007047000068
:1009500002490A68101808607047C046CC0520207C
:10096000024801680022026008B27047001809407E
:1009700000F050F8012002A2014600F071FAFEE7F3
:10098000484152444641554C54000000F0B581B0F6
:100990004B20C00100F0D2FE00245021204600F080
:1009A000EBFE174800F0D8FF164800F0C9FF1648C4
:1009B00000F0D6FE154D164E2746E819406800F0A7
:1009C000BDFE34703420032100F0E6FE642001F007
:1009D000C5F8307800280FD1002030703420032172
:1009E00000F0DAFE642001F0B9F83078002803D175
:1009F000381D202F0746E0D100F00CF801B0F0BD03
:100A000061150000891400004D090000382A00001B
:100A1000C8052020B0B5B02000F038FA102000F052
:100A200035FA0025284600F031FA0024204600F06F
:100A30005DFA681C45B2002DF7D5B12000F026FA0A
:100A4000102000F023FA204600F020FA0025284666
:100A500000F04CFA601C44B2002CF7D5B22000F034
:100A600015FA102000F012FA284600F00FFA0024C0
:100A7000204600F03BFA681C45B2002DF7D5B320A4
:100A800000F004FA102000F001FA204600F0FEF910
:100A90000025284600F02AFA601C44B2002CF7D545
:100AA000B42000F0F3F9102000F0F0F9284600F02F
:100AB000EDF90024204600F019FA681C45B2002D1B
:100AC000F7D5B52000F0E2F9102000F0DFF920465C
:100AD00000F0DCF90025284600F008FA601C44B25A
:100AE000002CF7D5B62000F0D1F9102000F0CEF997
:100AF000284600F0CBF90024204600F0F7F9681CE6
:100B000045B2002DF7D5B72000F0C0F9102000F055
:100B1000BDF9204600F0BAF9002000F0E7F9601CAA
:100B200044B2002CF8D5B0BDF0B581B0044640B257
:100B3000ED4E002802D40820306101E0082030602A
:100B40000125284601F02AF804273760284601F0DD
:100B500025F83761284601F021F8600602D4082004
:100B6000306101E0082030600125284601F016F8C8
:100B70003760284601F012F83761284601F00EF878
:100B8000A00602D40820306101E008203060012571
:100B9000284601F003F83760284600F0FFFF376170
:100BA000284600F0FBFFE00602D40820306101E097
:100BB000082030600125284600F0F0FF3760284605
:100BC00000F0ECFF3761284600F0E8FF200702D470
:100BD0000820306101E0082030600125284600F03F
:100BE000DDFF3760284600F0D9FF3761284600F066
:100BF000D5FF600702D40820306101E00820306092
:100C00000125284600F0CAFF3760284600F0C6FFDD
:100C10003761284600F0C2FFA00702D408203061E7
:100C200001E0082030600125284600F0B7FF37605A
:100C3000284600F0B3FF3761284600F0AFFFE00719
:100C400002D10820306101E00820306001242046F4
:100C500000F0A4FF3760204600F0A0FF3761204677
:100C600000F09CFF3760204600F098FF3761204677
:100C700000F094FF01B0F0BD80B5AE2000F006F9A1
:100C8000D52000F003F9802000F000F9A82000F042
:100C9000FDF83F2000F0FAF8D32000F0F7F800202C
:100CA00000F0F4F8402000F0F1F8A12000F0EEF898
:100CB000C82000F0EBF8DA2000F0E8F8122000F08D
:100CC000E5F8812000F0E2F8CF2000F0DFF8D9202D
:100CD00000F0DCF8F12000F0D9F8DB2000F0D6F8C5
:100CE000302000F0D3F8A42000F0D0F8A62000F0C7
:100CF000CDF88D2000F0CAF8142000F0C7F8AF201E
:100D000000F0C4F8FFF786FE80BD0000F0B583B0A8
:100D100016460C46400002907E30B02101910843F7
:100D2000C0B200F0B3F8E700083FF8B2040910348D
:100D3000204600F0ABF808253D40284600F0A6F814
:100D4000300121494618214FF05D00F0CFF8F61927
:100D5000707800F0CBF8B07800F0C8F8F07800F0C8
:100D6000C5F8307900F0C2F8707900F0BFF8B079BA
:100D700000F0BCF8F07900F0B9F80298401E019933
:100D80000843C0B200F082F8204600F07FF8284601
:100D900000F07CF8307A00F0A9F8707A00F0A6F83C
:100DA000B07A00F0A3F8F07A00F0A0F8307B00F001
:100DB0009DF8707B00F09AF8B07B00F097F8F07B1C
:100DC00000F094F803B0F0BD4622000000FEFFFFE3
:100DD000F0B587B003AC0FC4002B3DD00698451E7C
:100DE00041420291801E019000271C4E13E0012118
:100DF00004983C18059801F0ADF80A21FFF706FAAF
:100E000030220A43E1B20398FFF780FF6D1E7F1C7A
:100E10000698874220D0F84302998842E7D00322FF
:100E20000199C91B032901D2012105E02B469343F7
:100E3000012171431B1FFCD1069BC0181040D7D065
:100E4000012801D10A2005E0022802D07D20C0003F
:100E500000E064204143CBE707B0F0BD102700005D
:100E6000F0B581B00646107800280DD014460D4626
:100E700000277919C9B2C2B23046FFF747FF7F1C7D
:100E8000F8B2205C0028F4D101B0F0BDF0B581B01B
:100E90000090794E082737600124204600F07EFE3E
:100EA00004253560204600F079FE3761204600F0C9
:100EB00075FE3561204600F071FE7820FFF734FEA4
:100EC0000020FFF731FE0098FFF72EFE3761204625
:100ED00000F064FE3560204600F060FE376020467A
:100EE00000F05CFE01B0F0BD90320A40F0B581B078
:100EF0000090614E082737600124204600F04EFE26
:100F000004253560204600F049FE3761204600F098
:100F100045FE3561204600F041FE7820FFF704FED3
:100F20004020FFF701FE0098FFF7FEFD37612046E5
:100F300000F034FE3560204600F030FE3760204679
:100F400000F02CFE01B0F0BD80B50D480D49FFF753
:100F500097FB0D4841680D4A0A4001214B04D21805
:100F6000426082680A4B134083600A4A0023136080
:100F70000A0403681343036002680A43026080BDE9
:100F800000200040602A000000310040FEFFECFF1E
:100F9000F8FFE0E08031004080B50C480C49FFF7D5
:100FA0008FFC0C480C49C1620022C2670B4B0360E6
:100FB00001630B490A6003600A4941600A49012242
:100FC0000A6001681143016080BDC046000009400D
:100FD000682A000004180940010002001292001063
:100FE00084180940FFFF00000811094010B51D4991
:100FF00086200863012253051B48036088234B6346
:1010000092050260194B5C1D194A54601C1D146046
:101010008224946053619465D365CC640B654C66FF
:101020004B65144C54638C62CC625B1E8B638B6487
:101030008B6681239364D364136653669363D3638F
:101040000B604B608B6001463039732212020A60DC
:10105000026003200002084908610C220A600C307B
:10106000086410BD88804240D0120A40820004000B
:10107000048042408100060090320A40F0B581B001
:101080001A4C1B492046FFF71BFC1A492046FFF764
:101090001DFB7D20C6000025204631462A46FFF76D
:1010A00007FC0095204629462A462B46FFF7F4FB0D
:1010B000204629462A46FFF7E1FB01272046314614
:1010C0003A46FFF7F5FB0097204629462A462B466D
:1010D000FFF7E2FB204629463A46FFF7CFFB0648DA
:1010E00087600321016001B0F0BDC04600808640EA
:1010F0006B2A0000702A0000009186400C480021F5
:1011000001600320C1430B480246083A13680B40B4
:1011100013600168012291430160110203688B434F
:1011200003601103001F02680A4302607047C04653
:1011300008030B4008010B400548042101601F21F2
:10114000416000218160016805220A430260704706
:1011500010E000E010B50D4C0D492046FFF7B0FB44
:101160000C492046FFF712FB0B480168012211438E
:101170000160FF20000409490B68834303208005B8
:10118000181808600648026010BDC046000086407E
:10119000782A00007C2A00002810864010E400E035
:1011A0000811864010B51C4C1C492046FFF7BAFBBD
:1011B0001B492046FFF792FB0321CA031948036825
:1011C000934303600269764B13401A33036142690B
:1011D0000A433C218A434261426801210A40436834
:1011E0008B439A184260104A1368554C1C43146094
:1011F0004A04036813430360C26820231343502248
:101200009343C360C2680223134305229343C36020
:1012100002680A43026010BD00801040902A00005E
:10122000922A0000009110402890104010B51D4CEB
:101230001D492046FFF776FB1C492046FFF74EFB71
:101240000320C1031A4802688A4302600169544AB4
:101250000A40911C016141690B220A4334218A43EF
:101260004261426801210A4043688B439A184260F8
:10127000104A1368324C1C4314604A040368134339
:101280000360C2682023134350229343C360C268A3
:101290000223134305229343C36002680A4302609A
:1012A00010BDC046000010409C2A00009E2A00008D
:1012B000001110402810104010B51C4C1C4920464D
:1012C000FFF730FB1B492046FFF708FB0321CA0349
:1012D00019480368934303600269314B13401A3382
:1012E000036142690A433C218A4342614268012109
:1012F0000A4043688B439A184260104A1368104CA6
:101300001C4314604A04036813430360C26820232B
:10131000134350229343C360C26802231343052240
:101320009343C36002680A43026010BD002010406E
:10133000A82A0000AA2A00000031104028301040DE
:101340001704000010B5124C12492046FFF7EAFAC4
:1013500011492046FFF7C2FA0321CA030F48036868
:101360009343036002690E4B13401A3303614269D1
:101370000A433C218A43426141680122114043688B
:1013800093435918416001681143016010BDC04684
:1013900000005040B42A0000B62A0000001150405E
:1013A0000000FFFF80B500F02BF8FFF71FFEFFF7EE
:1013B000A5FEFFF763FEFFF7EFFDFFF7CBFEFFF79C
:1013C000F1FEFFF733FFFFF777FFFFF7BBFFFFF7F4
:1013D000BBFDFFF7B1FE7420054900220A54054900
:1013E0000A54B82004490A542C2004490A5480BDE8
:1013F0007C002020F40020206C01202028022020E6
:10140000F0B581B01448154A42601548426015484D
:10141000426015484260154D6A60154E7260154F66
:101420007A60154B5A6015494A6015484260154A62
:10143000094C22600A4C22600A4C22600A4C22604D
:101440002A6032603A601A600A6002601020FFF77A
:1014500037F901B0F0BDC04600080A40030000B1F2
:1014600000280A400088864000080940000886409D
:10147000008810400008104000281040000850402C
:101480000028004001000026F0B583B0002961D09B
:1014900003220C461440042935D3009491432E4A6C
:1014A0008318363B01903338029000252B4E05E01F
:1014B0003278024332702D1DA94221D00298421980
:1014C000D71E8020092F074600D85F5D34783C4343
:1014D0003470941E092C074601D85C19677834785B
:1014E0003C433470541E092C074601D85C19A77878
:1014F00034783C433470092ADAD85819C078D7E7D1
:1015000001984019009C002C24D00246363A092A42
:1015100002D811498A5C00E0802210490B781343FD
:101520000B70012C16D00346353B092B02D80A4A12
:10153000D35C00E080230A781A430A70022C09D099
:101540003438092802D8044A105C00E080200A7868
:1015500002430A7003B0F0BD3C220000C805202001
:1015600080B500F0EDF880BDF0B581B0214800688D
:1015700000063DD0204D2868401C28601F48018887
:10158000491C0180FFF7ECF90446FFF7E1F91C491B
:101590000868001908602A68142A29DB00222A60DA
:1015A0000A6018498F5E184E378018498D5E184CB6
:1015B0002580FFF725F81749FEF728FF164900F0A8
:1015C000C5FD164900F0C2FDFEF7D0FF14490880A2
:1015D0007D20C00013498742024602DC8F420A4642
:1015E00000DA3280854202DC8D42084600DA208033
:1015F00001B0F0BD20108640740020206A00202039
:1016000070002020780020206C0020207A0020200C
:101610006E0020200000B644717D52430000484215
:101620006800202018FCFFFF70B51C480168CAB292
:101630000B2A31D8012191402C22114213D01621BE
:10164000816217480168490726D4C16901684907C2
:1016500022D4C169016849071ED4C16901684907DC
:101660001AD4C169EEE73048014215D00C48016830
:10167000490711D40B490C4A0C4B02E0046864077B
:101680000AD4C4690D886D1CEDB21688B542F5D038
:101690000E889C550D80F1E770BDC04620101040AB
:1016A000081110401E082020200820201D0720209F
:1016B00070B51C480168CAB20B2A31D8012191408B
:1016C0002C22114213D01621816218480168490763
:1016D00026D4C1690168490722D4C1690168490754
:1016E0001ED4C169016849071AD4C169EEE70E48E2
:1016F000014215D00D480168490711D40C490D4A23
:101700000D4B02E0046864070AD4C4690D886D1C9F
:10171000EDB21688B542F5D00E889C550D80F1E7E4
:1017200070BDC04620301040020800000831104053
:1017300022092020240920202208202070470000B0
:1017400070B5002909D00C460546044E297830466C
:10175000FFF7F2F86D1C641EF8D170BD0020104038
:10176000002803D003490860002070470520C043CB
:101770007047C046B0022020032802D90520C0438C
:101780007047674A11706349086002490020086089
:101790007047C046D8062020F0B585B00D460446F7
:1017A00009180420C743781E8F2901D905B0F0BD60
:1017B000584909680329F9D87944097949008F44BF
:1017C0000112546A042DF1D868480268002A38468C
:1017D000ECD003A8C4702721817057490180210AE9
:1017E000017105218FE061480668002E62D0680013
:1017F0004A490140FB295AD803A84571C470032106
:101800004170290A02910171270A877044490978B9
:101810000170FF228A434649895C464B9A5CFC234F
:101820005340444AD25C4A407A40D1B2404A575C65
:101830000197404F795CD35C4B406340D9B27B5CED
:10184000019A5340029A5340DAB2BB5C384F795C3C
:1018500059406940C9B27B5CC371BA5C354B595C75
:10186000514081710821B0474EE0032D9ED82F488A
:101870000368002B384699D003A9CC7027208870C4
:10188000AA204870FF200870200A087124480078B8
:101890000522984738E020480668002E0AD01F48E5
:1018A000801C6B00034001200002834205D9781C94
:1018B00005B0F0BD384605B0F0BD19480078E1B27A
:1018C0004006000E174AB04701281DD12148016883
:1018D0000029384600D169E70291002D114A0FD046
:1018E000002111480B464E00975D96197678360216
:1018F000F6190919490046525B1C99B2A942F2D364
:1019000020462946029A90470C480460002005B002
:10191000F0BDC046D0062020B4022020FCFF00000D
:1019200000002020D0052020A8042020AC02202088
:101930003629000036280000FFAA0000D406202027
:10194000002803D003490860002070470520C043E9
:101950007047C046B8022020002803D00349086021
:10196000002070470520C0437047C046BC022020BD
:10197000F0B585B00C460746734EA221FF253046D0
:101980002A46FEF719FC00956800F9090140F8B2F3
:10199000122202925043301847543B0A6B4A53704C
:1019A00017706B4A0125157040184370200A01908A
:1019B0000027049703943846791CCBB2512B049F1F
:1019C00000D00F46C0B24100604A505C51184978BF
:1019D000E3B2984204D1019AD3B2994200D1A6E071
:1019E000082824D84E1CF4B2082C20D809234343DD
:1019F000584AD3181B5D002B19D1029B4343524A0E
:101A0000D31864001A5DFF2A11D11A19EBB25B00DA
:101A10004E4CE054517010706D1C4D4A1570E21818
:101A20005670EAB2512A02D10025494A1570461C67
:101A3000F4B2082C1FD808291DD809226243454B4F
:101A40009A18525C002A16D1029A54433E4A13193E
:101A50004C001A5DFF2A0ED11A19EBB25B003B4C09
:101A6000E654517010706D1C394A1570E2185170AF
:101A7000EAB2512A55D0082824D84E1EF4B2082CB8
:101A800020D809224243334B9A18125D002A19D1FB
:101A9000029A42432C4B9B1864001A5DFF2A11D115
:101AA0001A19EBB25B00294CE054517010706D1C98
:101AB000274A1570E2185670EAB2512A02D1002561
:101AC000234A1570461EF4B2082C10D808290ED8E7
:101AD000092262431F4B9A18525C002A07D1029ACE
:101AE0005443194A13194C001A5DFF2A05D0039C70
:101AF000E8B2F9B281421CD05DE71A19EBB25B0083
:101B0000124CE654517010706D1C11480570E018AD
:101B10004170E8B25128039CEAD100250C480570B9
:101B2000E6E700250A4A15700828A6D9CAE70199F0
:101B300002E000980446014607480770E0B2090237
:101B4000081805B0F0BDC04664032020060420201C
:101B5000DE06202058022020A902202010B57D2179
:101B6000090241431C480268002301E08B4214D261
:101B700014460268A24208D10268A24205D1026856
:101B8000A24202D10268A242F3D01B199B1AA242C0
:101B9000ECD3041F24681B19E8E710BD10B50E49EB
:101BA0000A684001002301E0834214D214460A6807
:101BB000A24208D10A68A24205D10A68A24202D113
:101BC0000A68A242F3D01B199B1AA242ECD30C1F45
:101BD00024681B19E8E710BD18E000E082B0FFF7A9
:101BE000E1FBFFF749F8FEF7D1FE01204303564918
:101BF0000B60564A136083030B60136008230B606D
:101C0000136083040B6013600B60136050A20146E5
:101C1000FFF726F97D20C000FFF7A0FFFEF7FAFED0
:101C20000024FF2220462146134600F095F80220AA
:101C3000C643C34D28780028019621D0C34F032105
:101C4000204600F087F9411CCBB200937043201866
:101C500005254543681CC1B23A780126184633462B
:101C6000FFF7B6F8E81CB64DC1B27A780098334653
:101C7000019EFFF7ADF8BF1C641C28788442DED3B8
:101C80003448FFF76BFFFEF7C5FE01200222032157
:101C90000B4600F061F8287800282F4622D0002556
:101CA000AA4C0321284600F055F9411CCBB2009301
:101CB0007043281805264643701CC1B222780127BC
:101CC00018463B46FFF784F8F01C019EC1B26278CB
:101CD00000983B469A4FFFF77BF8A41C6D1C3878A0
:101CE0008542DED31B48FFF739FFFEF793FE022043
:101CF0000321FF22134600F02FF83878002822D065
:101D00000024924F0321204600F024F9411CCBB25D
:101D100000937043201805254543681CC1B23A78EA
:101D2000012618463346FFF753F8E81CC1B27A780B
:101D300000983346019EFFF74BF8BF1C641C804897
:101D400000788442DED3FEE780E200E000E100E0BC
:101D50006F6B000088130000F0B5ADB002930E4623
:101D6000744B19784F00744CE55D0390854208D19F
:101D7000E0194078B0422546344604D1491C197018
:101D800001E0254634466D480078C9B2814260D2F0
:101D9000FF2A1DD00298FF281AD0082A09D80298D5
:101DA000082806D809205043664E30180126029BA9
:101DB000C654039890420BD10298844208D16248DD
:101DC0004178624A5170007810705D48012142E00C
:101DD0005D484470039A02704800295C28184078D6
:101DE0000002411820028018FFF7C2FDC1B2FF298E
:101DF0002FD0FF22120203461340934229D02546DA
:101E000080B2040A0020012602E0401C002A31D1E1
:101E1000671B7A1E9741039A9142324600D13A4697
:101E2000002A1BD0C2B2520004AFB954BA18547081
:101E300012224A434649891862008B185C7823466F
:101E4000FF3B5F425F41895CFF293246DDD03A4665
:101E5000DBE73B48002101702DB0F0BD010609D041
:101E6000032102460A40C4B2042C0092029406D216
:101E7000002139E00020324908702DB0F0BDFC226D
:101E800002400192630004ACE3189C1EC943039115
:101E900000272E4E029D6178717021783170039970
:101EA000891C79404919490004AB5A5CB270591831
:101EB0004978F1700399491C7940491949005A1829
:101EC00052787271595C3171391D039A57407A19F1
:101ED00052009F187F78F7719A5CB271083C0836FF
:101EE000019A8A420F46D6D1029E009F002FC2D08F
:101EF000CA439219520004ACA65C4D00134B5E55C8
:101F00005B19A21852785A70012FB4D0029A511A54
:101F1000490004AA8A18121F5478DC7012789A704B
:101F2000022FA8D004AA8918891F4A785A71097803
:101F30001971A0E71B072020DF0620201C072020A6
:101F40006203202058022020DC062020C00220202E
:101F50006403202043088B421AD3002203098B42DA
:101F600079D3030A8B425ED3030B8B4242D3030C1B
:101F70008B4227D30902FF2212BA030C8B4202D3F1
:101F80001212090203D0030B8B4233D31AE0D3E0C1
:101F9000411A8041401C704703460B4371D44308EB
:101FA0008B42F5D3002203098B4254D3030A8B42A0
:101FB00039D3030B8B421DD3030C8B4202D39446BF
:101FC0006EE0090AC30B8B4201D3CB03C01A524106
:101FD000830B8B4201D38B03C01A5241430B8B42BC
:101FE00001D34B03C01A5241030B8B4201D30B03A5
:101FF000C01A5241C30A8B4201D3CB02C01A5241CC
:10200000830A8B4201D38B02C01A5241430A8B428E
:1020100001D34B02C01A5241030A8B4201D30B0277
:10202000C01A5241CDD2C3098B4201D3CB01C01A91
:10203000524183098B4201D38B01C01A524143099B
:102040008B4201D34B01C01A524103098B4201D389
:102050000B01C01A5241C3088B4201D3CB00C01AF6
:10206000524183088B4201D38B00C01A524143086E
:102070008B4201D34B00C01A5241411A5241100009
:102080007047CA0F00D04942031000D3404253406A
:1020900000229C4603098B422DD3030A8B4212D3A4
:1020A0008901FC2212BA030A8B420CD389019211D6
:1020B0008B4208D3890192118B4204D3890137D016
:1020C000921100E08909C3098B4201D3CB01C01AE8
:1020D000524183098B4201D38B01C01A52414309FB
:1020E0008B4201D34B01C01A524103098B4201D3E9
:1020F0000B01C01A5241C3088B4201D3CB00C01A56
:10210000524183088B4201D38B00C01A5241D9D26D
:1021100043088B4201D34B00C01A5241411A00D2EE
:1021200001465241104663465B1000D3404270475F
:1021300063465B1000D3404201B50021004201D04C
:10214000C9430846C046C04602BD000070B5420003
:1021500064414B005C41120E39D01B0E38D0FF2A6F
:102160003CD0FF2B3AD0D2187F3A40024902400AB5
:10217000490A4518ED0106004E43000A090A484382
:102180000104731A4019190C4318990F04D05B0805
:10219000012149075B1A521CD80904D3401CF503DE
:1021A00001D19D0607D0FF2A08D2D50506D0E40745
:1021B0002043401970BD0125A843F4E7002A01DC43
:1021C000E00770BD2402FF202043C00570BD1B0E38
:1021D000FF2A03D0FF2B01D0E00770BDFF26360693
:1021E0004500B54206D84D00B54203D8D218FF2AA3
:1021F00000D0E7E7004870BD0000C07F8182838483
:1022000085868788898B8C8D8E8F919293959697F2
:10221000999A9C9D9FA0A2A3A5A7A8AAACAEB0B274
:10222000B3B5B7B9BCBEC0C2C5C7C9CCCED1D4D76F
:10223000D9DCDFE2E6E9ECF0F3F7FAFE0180800298
:102240008080088080040000000000000000000082
:10225000000000000000000000F800000000000086
:1022600000333000000000100C06100C06000000C7
:1022700000000000000040C07840C0784000043FEB
:1022800004043F040400007088FC083000000018BB
:1022900020FF211E0000F008F000E01800000021DF
:1022A0001C031E211E0000F00888700000001E2183
:1022B00023241927211010160E0000000000000032
:1022C000000000000000000000E018040200000010
:1022D00000071820400000020418E0000000004041
:1022E000201807000000404080F0804040000202BB
:1022F000010F01020200000000F0000000000101D7
:10230000011F01010100000000000000000080B07A
:10231000700000000000000000000000000000014C
:102320000101010101010000000000000000003077
:102330003000000000000000000080601804006011
:1023400018060100000000E010080810E000000F6F
:10235000102020100F00001010F8000000000020D6
:10236000203F20200000007008080888700000301E
:1023700028242221300000300888884830000018C6
:10238000202020110E000000C02010F800000007DF
:102390000424243F240000F8088888080800001955
:1023A000212020110E0000E0108888180000000F86
:1023B000112020110E0000380808C838080000005D
:1023C000003F000000000070880808887000001CB2
:1023D000222121221C0000E010080810E00000006B
:1023E000312222110F00000000C0C00000000000D8
:1023F00000303000000000000080000000000000FD
:1024000080600000000000008040201008000001F3
:1024100002040810200040404040404040000404B6
:102420000404040404000008102040800000002080
:10243000100804020100007048080808F0000000BD
:10244000003036010000C030C828E810E00007184E
:10245000272423140B000000C038E0000000203CBB
:1024600023020227382008F8888888700000203F5F
:10247000202020110E00C030080808083800071876
:1024800020202010080008F808080810E000203F6D
:10249000202020100F0008F88888E8081000203F4E
:1024A00020202320180008F88888E8081000203F22
:1024B000200003000000C03008080838000007189A
:1024C0002020221E020008F808000008F808203F1B
:1024D000210101213F20000808F808080000002021
:1024E000203F2020000000000808F8080800C080F5
:1024F00080807F00000008F888C028180800203F6E
:1025000020012638200008F8080000000000203FC5
:1025100020202020300008F8F800F8F80800203FBC
:10252000003F003F200008F830C00008F808203FB6
:10253000200007183F00E01008080810E0000F1006
:10254000202020100F0008F808080808F000203F9D
:10255000210101010000E01008080810E0000F1838
:10256000242438504F0008F8888888887000203F5D
:102570002000030C3020007088080808380000385C
:10258000202121221C00180808F808081800000063
:10259000203F2000000008F808000008F808001F8D
:1025A000202020201F000878880000C8380800007C
:1025B00007380E010000F80800F80008F800033C96
:1025C0000700073C0300081868808068180820305E
:1025D0002C03032C30200838C800C838080000003D
:1025E000203F2000000010080808C83808002038E4
:1025F000262120201800000000FE02020200000038
:10260000007F40404000000C30C00000000000008F
:1026100000010638C00000020202FE000000004077
:1026200040407F000000000004020202040000009D
:10263000000000000000000000000000000080809A
:102640008080808080800002020400000000000082
:102650000000000000000000808080800000001961
:10266000242222223F2008F8008080000000003F42
:10267000112020110E000000008080800000000E5C
:10268000112020201100000000808088F800000E3A
:10269000112020103F200000808080800000001F5B
:1026A000222222221300008080F0888888180020CF
:1026B000203F202000000000808080808000006B90
:1026C00094949493600008F8008080800000203F7C
:1026D000210000203F20008098980000000000208A
:1026E000203F20200000000000809898000000C0DB
:1026F0008080807F000008F8000080808000203FFC
:1027000024022D302000000808F8000000000020FE
:10271000203F202000008080808080808000203F3B
:1027200020003F20003F8080008080800000203F0C
:10273000210000203F200000808080800000001FDA
:10274000202020201F00808000808000000080FF6B
:10275000A12020110E000000008080808000000E6B
:10276000112020A0FF8080808000808080002020B9
:102770003F21200001000000808080808000003325
:10278000242424241900008080E0808000000000C0
:10279000001F202000008080000000808000001FBB
:1027A000202020103F208080800000808080000159
:1027B0000E300806010080800080008080800F308D
:1027C0000C030C300F00008080008080800000200F
:1027D000312E0E312000808080000080808080813A
:1027E0008E701806010000808080808080000021AB
:1027F000302C2221300000000000807C020200000A
:102800000000003F404000000000FF00000000000A
:102810000000FF0000000002027C80000000004079
:10282000403F000000000006010102020404000015
:1028300000000000000000C1814001C0804101C0D3
:10284000804100C1814001C0804100C1814000C180
:10285000814001C0804101C0804100C1814000C170
:10286000814001C0804100C1814001C0804101C060
:10287000804100C1814001C0804100C1814000C150
:10288000814001C0804100C1814001C0804101C040
:10289000804100C1814000C1814001C0804101C030
:1028A000804100C1814001C0804100C1814000C120
:1028B000814001C0804101C0804100C1814000C110
:1028C000814001C0804100C1814001C0804101C000
:1028D000804100C1814000C1814001C0804101C0F0
:1028E000804100C1814001C0804100C1814000C1E0
:1028F000814001C0804100C1814001C0804101C0D0
:10290000804100C1814001C0804100C1814000C1BF
:10291000814001C0804101C0804100C1814000C1AF
:10292000814001C0804100C1814001C0804101C09F
:10293000804100C1814000C0C101C30302C2C6067C
:1029400007C705C5C404CC0C0DCD0FCFCE0E0ACAE7
:10295000CB0BC90908C8D81819D91BDBDA1A1EDE37
:10296000DF1FDD1D1CDC14D4D515D71716D6D212E7
:1029700013D311D1D010F03031F133F3F23236F6F7
:10298000F737F53534F43CFCFD3DFF3F3EFEFA3AA7
:102990003BFB39F9F83828E8E929EB2B2AEAEE2E37
:1029A0002FEF2DEDEC2CE42425E527E7E62622E2A7
:1029B000E323E12120E0A06061A163A3A26266A6F7
:1029C000A767A56564A46CACAD6DAF6F6EAEAA6A67
:1029D0006BAB69A9A86878B8B979BB7B7ABABE7EB7
:1029E0007FBF7DBDBC7CB47475B577B7B67672B267
:1029F000B373B17170B050909151935352929656F7
:102A00005797559594549C5C5D9D5F9F9E5E5A9A26
:102A10009B5B99595898884849894B8B8A4A4E8EB6
:102A20008F4F8D4D4C8C4484854587474686824226
:102A3000438341818040000000000000C01200007C
:102A400080250000004B00000096000000E100001F
:102A500000C20100008403000008070000100E00FF
:102A6000010500000000000308000008001F00002E
:102A7000E80300002001000008001F000200000021
:102A8000E70300000100000000000000000000005B
:102A900004000000180000000030000004000000E6
:102AA00018000000003000000400000018000000C2
:102AB000003000000400000018000000003000009A
:102AC000E02A000000002020080000002001000093
:102AD000E82A000008002020201100004801000022
:082AE000FF00000000000000EF
:04000005000000C136
:00000001FF
